{
  "_format": "hh-sol-artifact-1",
  "contractName": "MockUSDC",
  "sourceName": "contracts/MockUSDC.sol",
  "abi": [
    {
      "inputs": [],
      "stateMutability": "nonpayable",
      "type": "constructor"
    },
    {
      "inputs": [
        {
          "internalType": "address",
          "name": "spender",
          "type": "address"
        },
        {
          "internalType": "uint256",
          "name": "allowance",
          "type": "uint256"
        },
        {
          "internalType": "uint256",
          "name": "needed",
          "type": "uint256"
        }
      ],
      "name": "ERC20InsufficientAllowance",
      "type": "error"
    },
    {
      "inputs": [
        {
          "internalType": "address",
          "name": "sender",
          "type": "address"
        },
        {
          "internalType": "uint256",
          "name": "balance",
          "type": "uint256"
        },
        {
          "internalType": "uint256",
          "name": "needed",
          "type": "uint256"
        }
      ],
      "name": "ERC20InsufficientBalance",
      "type": "error"
    },
    {
      "inputs": [
        {
          "internalType": "address",
          "name": "approver",
          "type": "address"
        }
      ],
      "name": "ERC20InvalidApprover",
      "type": "error"
    },
    {
      "inputs": [
        {
          "internalType": "address",
          "name": "receiver",
          "type": "address"
        }
      ],
      "name": "ERC20InvalidReceiver",
      "type": "error"
    },
    {
      "inputs": [
        {
          "internalType": "address",
          "name": "sender",
          "type": "address"
        }
      ],
      "name": "ERC20InvalidSender",
      "type": "error"
    },
    {
      "inputs": [
        {
          "internalType": "address",
          "name": "spender",
          "type": "address"
        }
      ],
      "name": "ERC20InvalidSpender",
      "type": "error"
    },
    {
      "anonymous": false,
      "inputs": [
        {
          "indexed": true,
          "internalType": "address",
          "name": "owner",
          "type": "address"
        },
        {
          "indexed": true,
          "internalType": "address",
          "name": "spender",
          "type": "address"
        },
        {
          "indexed": false,
          "internalType": "uint256",
          "name": "value",
          "type": "uint256"
        }
      ],
      "name": "Approval",
      "type": "event"
    },
    {
      "anonymous": false,
      "inputs": [
        {
          "indexed": true,
          "internalType": "address",
          "name": "from",
          "type": "address"
        },
        {
          "indexed": true,
          "internalType": "address",
          "name": "to",
          "type": "address"
        },
        {
          "indexed": false,
          "internalType": "uint256",
          "name": "value",
          "type": "uint256"
        }
      ],
      "name": "Transfer",
      "type": "event"
    },
    {
      "inputs": [
        {
          "internalType": "address",
          "name": "owner",
          "type": "address"
        },
        {
          "internalType": "address",
          "name": "spender",
          "type": "address"
        }
      ],
      "name": "allowance",
      "outputs": [
        {
          "internalType": "uint256",
          "name": "",
          "type": "uint256"
        }
      ],
      "stateMutability": "view",
      "type": "function"
    },
    {
      "inputs": [
        {
          "internalType": "address",
          "name": "spender",
          "type": "address"
        },
        {
          "internalType": "uint256",
          "name": "value",
          "type": "uint256"
        }
      ],
      "name": "approve",
      "outputs": [
        {
          "internalType": "bool",
          "name": "",
          "type": "bool"
        }
      ],
      "stateMutability": "nonpayable",
      "type": "function"
    },
    {
      "inputs": [
        {
          "internalType": "address",
          "name": "account",
          "type": "address"
        }
      ],
      "name": "balanceOf",
      "outputs": [
        {
          "internalType": "uint256",
          "name": "",
          "type": "uint256"
        }
      ],
      "stateMutability": "view",
      "type": "function"
    },
    {
      "inputs": [],
      "name": "decimals",
      "outputs": [
        {
          "internalType": "uint8",
          "name": "",
          "type": "uint8"
        }
      ],
      "stateMutability": "pure",
      "type": "function"
    },
    {
      "inputs": [
        {
          "internalType": "address",
          "name": "to",
          "type": "address"
        },
        {
          "internalType": "uint256",
          "name": "amount",
          "type": "uint256"
        }
      ],
      "name": "faucet",
      "outputs": [],
      "stateMutability": "nonpayable",
      "type": "function"
    },
    {
      "inputs": [],
      "name": "name",
      "outputs": [
        {
          "internalType": "string",
          "name": "",
          "type": "string"
        }
      ],
      "stateMutability": "view",
      "type": "function"
    },
    {
      "inputs": [],
      "name": "symbol",
      "outputs": [
        {
          "internalType": "string",
          "name": "",
          "type": "string"
        }
      ],
      "stateMutability": "view",
      "type": "function"
    },
    {
      "inputs": [],
      "name": "totalSupply",
      "outputs": [
        {
          "internalType": "uint256",
          "name": "",
          "type": "uint256"
        }
      ],
      "stateMutability": "view",
      "type": "function"
    },
    {
      "inputs": [
        {
          "internalType": "address",
          "name": "to",
          "type": "address"
        },
        {
          "internalType": "uint256",
          "name": "value",
          "type": "uint256"
        }
      ],
      "name": "transfer",
      "outputs": [
        {
          "internalType": "bool",
          "name": "",
          "type": "bool"
        }
      ],
      "stateMutability": "nonpayable",
      "type": "function"
    },
    {
      "inputs": [
        {
          "internalType": "address",
          "name": "from",
          "type": "address"
        },
        {
          "internalType": "address",
          "name": "to",
          "type": "address"
        },
        {
          "internalType": "uint256",
          "name": "value",
          "type": "uint256"
        }
      ],
      "name": "transferFrom",
      "outputs": [
        {
          "internalType": "bool",
          "name": "",
          "type": "bool"
        }
      ],
      "stateMutability": "nonpayable",
      "type": "function"
    }
  ],
  "bytecode": "0x608060405234801561000f575f80fd5b50604051806040016040528060098152602001684d6f636b205553444360b81b815250604051806040016040528060058152602001646d5553444360d81b815250816003908161005f91906102a3565b50600461006c82826102a3565b50505061009e336100816100a360201b60201c565b61008c90600a610458565b61009990620f424061046d565b6100a8565b610497565b600690565b6001600160a01b0382166100d65760405163ec442f0560e01b81525f60048201526024015b60405180910390fd5b6100e15f83836100e5565b5050565b6001600160a01b03831661010f578060025f8282546101049190610484565b9091555061017f9050565b6001600160a01b0383165f90815260208190526040902054818110156101615760405163391434e360e21b81526001600160a01b038516600482015260248101829052604481018390526064016100cd565b6001600160a01b0384165f9081526020819052604090209082900390555b6001600160a01b03821661019b576002805482900390556101b9565b6001600160a01b0382165f9081526020819052604090208054820190555b816001600160a01b0316836001600160a01b03167fddf252ad1be2c89b69c2b068fc378daa952ba7f163c4a11628f55a4df523b3ef836040516101fe91815260200190565b60405180910390a3505050565b634e487b7160e01b5f52604160045260245ffd5b600181811c9082168061023357607f821691505b60208210810361025157634e487b7160e01b5f52602260045260245ffd5b50919050565b601f82111561029e57805f5260205f20601f840160051c8101602085101561027c5750805b601f840160051c820191505b8181101561029b575f8155600101610288565b50505b505050565b81516001600160401b038111156102bc576102bc61020b565b6102d0816102ca845461021f565b84610257565b602080601f831160018114610303575f84156102ec5750858301515b5f19600386901b1c1916600185901b17855561035a565b5f85815260208120601f198616915b8281101561033157888601518255948401946001909101908401610312565b508582101561034e57878501515f19600388901b60f8161c191681555b505060018460011b0185555b505050505050565b634e487b7160e01b5f52601160045260245ffd5b600181815b808511156103b057815f190482111561039657610396610362565b808516156103a357918102915b93841c939080029061037b565b509250929050565b5f826103c657506001610452565b816103d257505f610452565b81600181146103e857600281146103f25761040e565b6001915050610452565b60ff84111561040357610403610362565b50506001821b610452565b5060208310610133831016604e8410600b8410161715610431575081810a610452565b61043b8383610376565b805f190482111561044e5761044e610362565b0290505b92915050565b5f61046660ff8416836103b8565b9392505050565b808202811582820484141761045257610452610362565b8082018082111561045257610452610362565b610736806104a45f395ff3fe608060405234801561000f575f80fd5b506004361061008c575f3560e01c806306fdde0314610090578063095ea7b3146100ae57806318160ddd146100d157806323b872dd146100e3578063313ce567146100f657806370a08231146101055780637b56c2b21461012d57806395d89b4114610142578063a9059cbb1461014a578063dd62ed3e1461015d575b5f80fd5b610098610170565b6040516100a59190610572565b60405180910390f35b6100c16100bc3660046105c2565b610200565b60405190151581526020016100a5565b6002545b6040519081526020016100a5565b6100c16100f13660046105ea565b610219565b604051600681526020016100a5565b6100d5610113366004610623565b6001600160a01b03165f9081526020819052604090205490565b61014061013b3660046105c2565b61023c565b005b61009861024a565b6100c16101583660046105c2565b610259565b6100d561016b366004610643565b610266565b60606003805461017f90610674565b80601f01602080910402602001604051908101604052809291908181526020018280546101ab90610674565b80156101f65780601f106101cd576101008083540402835291602001916101f6565b820191905f5260205f20905b8154815290600101906020018083116101d957829003601f168201915b5050505050905090565b5f3361020d818585610290565b60019150505b92915050565b5f336102268582856102a2565b6102318585856102fc565b506001949350505050565b6102468282610359565b5050565b60606004805461017f90610674565b5f3361020d8185856102fc565b6001600160a01b039182165f90815260016020908152604080832093909416825291909152205490565b61029d838383600161038d565b505050565b5f6102ad8484610266565b90505f198110156102f657818110156102e857828183604051637dc7a0d960e11b81526004016102df939291906106ac565b60405180910390fd5b6102f684848484035f61038d565b50505050565b6001600160a01b038316610325575f604051634b637e8f60e11b81526004016102df91906106cd565b6001600160a01b03821661034e575f60405163ec442f0560e01b81526004016102df91906106cd565b61029d83838361045f565b6001600160a01b038216610382575f60405163ec442f0560e01b81526004016102df91906106cd565b6102465f838361045f565b6001600160a01b0384166103b6575f60405163e602df0560e01b81526004016102df91906106cd565b6001600160a01b0383166103df575f604051634a1406b160e11b81526004016102df91906106cd565b6001600160a01b038085165f90815260016020908152604080832093871683529290522082905580156102f657826001600160a01b0316846001600160a01b03167f8c5be1e5ebec7d5bd14f71427d1e84f3dd0314c0f7b2291e5b200ac8c7c3b9258460405161045191815260200190565b60405180910390a350505050565b6001600160a01b038316610489578060025f82825461047e91906106e1565b909155506104e69050565b6001600160a01b0383165f90815260208190526040902054818110156104c85783818360405163391434e360e21b81526004016102df939291906106ac565b6001600160a01b0384165f9081526020819052604090209082900390555b6001600160a01b03821661050257600280548290039055610520565b6001600160a01b0382165f9081526020819052604090208054820190555b816001600160a01b0316836001600160a01b03167fddf252ad1be2c89b69c2b068fc378daa952ba7f163c4a11628f55a4df523b3ef8360405161056591815260200190565b60405180910390a3505050565b602081525f82518060208401528060208501604085015e5f604082850101526040601f19601f83011684010191505092915050565b80356001600160a01b03811681146105bd575f80fd5b919050565b5f80604083850312156105d3575f80fd5b6105dc836105a7565b946020939093013593505050565b5f805f606084860312156105fc575f80fd5b610605846105a7565b9250610613602085016105a7565b9150604084013590509250925092565b5f60208284031215610633575f80fd5b61063c826105a7565b9392505050565b5f8060408385031215610654575f80fd5b61065d836105a7565b915061066b602084016105a7565b90509250929050565b600181811c9082168061068857607f821691505b6020821081036106a657634e487b7160e01b5f52602260045260245ffd5b50919050565b6001600160a01b039390931683526020830191909152604082015260600190565b6001600160a01b0391909116815260200190565b8082018082111561021357634e487b7160e01b5f52601160045260245ffdfea264697066735822122089a7d307e7da9c8632636c2881c10c4780910e4c76f622c80f500350f88e595964736f6c63430008190033",
  "linkReferences": {},
  "deployedLinkReferences": {}
}