{
  "_format": "hh-sol-artifact-1",
  "contractName": "GovToken",
  "sourceName": "contracts/GovToken.sol",
  "abi": [
    {
      "inputs": [
        {
          "internalType": "address",
          "name": "initialOwner",
          "type": "address"
        }
      ],
      "stateMutability": "nonpayable",
      "type": "constructor"
    },
    {
      "inputs": [],
      "name": "CheckpointUnorderedInsertion",
      "type": "error"
    },
    {
      "inputs": [],
      "name": "ECDSAInvalidSignature",
      "type": "error"
    },
    {
      "inputs": [
        {
          "internalType": "uint256",
          "name": "length",
          "type": "uint256"
        }
      ],
      "name": "ECDSAInvalidSignatureLength",
      "type": "error"
    },
    {
      "inputs": [
        {
          "internalType": "bytes32",
          "name": "s",
          "type": "bytes32"
        }
      ],
      "name": "ECDSAInvalidSignatureS",
      "type": "error"
    },
    {
      "inputs": [
        {
          "internalType": "uint256",
          "name": "increasedSupply",
          "type": "uint256"
        },
        {
          "internalType": "uint256",
          "name": "cap",
          "type": "uint256"
        }
      ],
      "name": "ERC20ExceededSafeSupply",
      "type": "error"
    },
    {
      "inputs": [
        {
          "internalType": "address",
          "name": "spender",
          "type": "address"
        },
        {
          "internalType": "uint256",
          "name": "allowance",
          "type": "uint256"
        },
        {
          "internalType": "uint256",
          "name": "needed",
          "type": "uint256"
        }
      ],
      "name": "ERC20InsufficientAllowance",
      "type": "error"
    },
    {
      "inputs": [
        {
          "internalType": "address",
          "name": "sender",
          "type": "address"
        },
        {
          "internalType": "uint256",
          "name": "balance",
          "type": "uint256"
        },
        {
          "internalType": "uint256",
          "name": "needed",
          "type": "uint256"
        }
      ],
      "name": "ERC20InsufficientBalance",
      "type": "error"
    },
    {
      "inputs": [
        {
          "internalType": "address",
          "name": "approver",
          "type": "address"
        }
      ],
      "name": "ERC20InvalidApprover",
      "type": "error"
    },
    {
      "inputs": [
        {
          "internalType": "address",
          "name": "receiver",
          "type": "address"
        }
      ],
      "name": "ERC20InvalidReceiver",
      "type": "error"
    },
    {
      "inputs": [
        {
          "internalType": "address",
          "name": "sender",
          "type": "address"
        }
      ],
      "name": "ERC20InvalidSender",
      "type": "error"
    },
    {
      "inputs": [
        {
          "internalType": "address",
          "name": "spender",
          "type": "address"
        }
      ],
      "name": "ERC20InvalidSpender",
      "type": "error"
    },
    {
      "inputs": [
        {
          "internalType": "uint256",
          "name": "deadline",
          "type": "uint256"
        }
      ],
      "name": "ERC2612ExpiredSignature",
      "type": "error"
    },
    {
      "inputs": [
        {
          "internalType": "address",
          "name": "signer",
          "type": "address"
        },
        {
          "internalType": "address",
          "name": "owner",
          "type": "address"
        }
      ],
      "name": "ERC2612InvalidSigner",
      "type": "error"
    },
    {
      "inputs": [
        {
          "internalType": "uint256",
          "name": "timepoint",
          "type": "uint256"
        },
        {
          "internalType": "uint48",
          "name": "clock",
          "type": "uint48"
        }
      ],
      "name": "ERC5805FutureLookup",
      "type": "error"
    },
    {
      "inputs": [],
      "name": "ERC6372InconsistentClock",
      "type": "error"
    },
    {
      "inputs": [
        {
          "internalType": "address",
          "name": "account",
          "type": "address"
        },
        {
          "internalType": "uint256",
          "name": "currentNonce",
          "type": "uint256"
        }
      ],
      "name": "InvalidAccountNonce",
      "type": "error"
    },
    {
      "inputs": [],
      "name": "InvalidShortString",
      "type": "error"
    },
    {
      "inputs": [
        {
          "internalType": "address",
          "name": "owner",
          "type": "address"
        }
      ],
      "name": "OwnableInvalidOwner",
      "type": "error"
    },
    {
      "inputs": [
        {
          "internalType": "address",
          "name": "account",
          "type": "address"
        }
      ],
      "name": "OwnableUnauthorizedAccount",
      "type": "error"
    },
    {
      "inputs": [
        {
          "internalType": "uint8",
          "name": "bits",
          "type": "uint8"
        },
        {
          "internalType": "uint256",
          "name": "value",
          "type": "uint256"
        }
      ],
      "name": "SafeCastOverflowedUintDowncast",
      "type": "error"
    },
    {
      "inputs": [
        {
          "internalType": "string",
          "name": "str",
          "type": "string"
        }
      ],
      "name": "StringTooLong",
      "type": "error"
    },
    {
      "inputs": [
        {
          "internalType": "uint256",
          "name": "expiry",
          "type": "uint256"
        }
      ],
      "name": "VotesExpiredSignature",
      "type": "error"
    },
    {
      "anonymous": false,
      "inputs": [
        {
          "indexed": true,
          "internalType": "address",
          "name": "owner",
          "type": "address"
        },
        {
          "indexed": true,
          "internalType": "address",
          "name": "spender",
          "type": "address"
        },
        {
          "indexed": false,
          "internalType": "uint256",
          "name": "value",
          "type": "uint256"
        }
      ],
      "name": "Approval",
      "type": "event"
    },
    {
      "anonymous": false,
      "inputs": [
        {
          "indexed": true,
          "internalType": "address",
          "name": "delegator",
          "type": "address"
        },
        {
          "indexed": true,
          "internalType": "address",
          "name": "fromDelegate",
          "type": "address"
        },
        {
          "indexed": true,
          "internalType": "address",
          "name": "toDelegate",
          "type": "address"
        }
      ],
      "name": "DelegateChanged",
      "type": "event"
    },
    {
      "anonymous": false,
      "inputs": [
        {
          "indexed": true,
          "internalType": "address",
          "name": "delegate",
          "type": "address"
        },
        {
          "indexed": false,
          "internalType": "uint256",
          "name": "previousVotes",
          "type": "uint256"
        },
        {
          "indexed": false,
          "internalType": "uint256",
          "name": "newVotes",
          "type": "uint256"
        }
      ],
      "name": "DelegateVotesChanged",
      "type": "event"
    },
    {
      "anonymous": false,
      "inputs": [],
      "name": "EIP712DomainChanged",
      "type": "event"
    },
    {
      "anonymous": false,
      "inputs": [
        {
          "indexed": true,
          "internalType": "address",
          "name": "previousOwner",
          "type": "address"
        },
        {
          "indexed": true,
          "internalType": "address",
          "name": "newOwner",
          "type": "address"
        }
      ],
      "name": "OwnershipTransferred",
      "type": "event"
    },
    {
      "anonymous": false,
      "inputs": [
        {
          "indexed": true,
          "internalType": "address",
          "name": "from",
          "type": "address"
        },
        {
          "indexed": true,
          "internalType": "address",
          "name": "to",
          "type": "address"
        },
        {
          "indexed": false,
          "internalType": "uint256",
          "name": "value",
          "type": "uint256"
        }
      ],
      "name": "Transfer",
      "type": "event"
    },
    {
      "inputs": [],
      "name": "CLOCK_MODE",
      "outputs": [
        {
          "internalType": "string",
          "name": "",
          "type": "string"
        }
      ],
      "stateMutability": "view",
      "type": "function"
    },
    {
      "inputs": [],
      "name": "DOMAIN_SEPARATOR",
      "outputs": [
        {
          "internalType": "bytes32",
          "name": "",
          "type": "bytes32"
        }
      ],
      "stateMutability": "view",
      "type": "function"
    },
    {
      "inputs": [
        {
          "internalType": "address",
          "name": "owner",
          "type": "address"
        },
        {
          "internalType": "address",
          "name": "spender",
          "type": "address"
        }
      ],
      "name": "allowance",
      "outputs": [
        {
          "internalType": "uint256",
          "name": "",
          "type": "uint256"
        }
      ],
      "stateMutability": "view",
      "type": "function"
    },
    {
      "inputs": [
        {
          "internalType": "address",
          "name": "spender",
          "type": "address"
        },
        {
          "internalType": "uint256",
          "name": "value",
          "type": "uint256"
        }
      ],
      "name": "approve",
      "outputs": [
        {
          "internalType": "bool",
          "name": "",
          "type": "bool"
        }
      ],
      "stateMutability": "nonpayable",
      "type": "function"
    },
    {
      "inputs": [
        {
          "internalType": "address",
          "name": "account",
          "type": "address"
        }
      ],
      "name": "balanceOf",
      "outputs": [
        {
          "internalType": "uint256",
          "name": "",
          "type": "uint256"
        }
      ],
      "stateMutability": "view",
      "type": "function"
    },
    {
      "inputs": [
        {
          "internalType": "address",
          "name": "account",
          "type": "address"
        },
        {
          "internalType": "uint32",
          "name": "pos",
          "type": "uint32"
        }
      ],
      "name": "checkpoints",
      "outputs": [
        {
          "components": [
            {
              "internalType": "uint48",
              "name": "_key",
              "type": "uint48"
            },
            {
              "internalType": "uint208",
              "name": "_value",
              "type": "uint208"
            }
          ],
          "internalType": "struct Checkpoints.Checkpoint208",
          "name": "",
          "type": "tuple"
        }
      ],
      "stateMutability": "view",
      "type": "function"
    },
    {
      "inputs": [],
      "name": "clock",
      "outputs": [
        {
          "internalType": "uint48",
          "name": "",
          "type": "uint48"
        }
      ],
      "stateMutability": "view",
      "type": "function"
    },
    {
      "inputs": [],
      "name": "decimals",
      "outputs": [
        {
          "internalType": "uint8",
          "name": "",
          "type": "uint8"
        }
      ],
      "stateMutability": "view",
      "type": "function"
    },
    {
      "inputs": [
        {
          "internalType": "address",
          "name": "delegatee",
          "type": "address"
        }
      ],
      "name": "delegate",
      "outputs": [],
      "stateMutability": "nonpayable",
      "type": "function"
    },
    {
      "inputs": [
        {
          "internalType": "address",
          "name": "delegatee",
          "type": "address"
        },
        {
          "internalType": "uint256",
          "name": "nonce",
          "type": "uint256"
        },
        {
          "internalType": "uint256",
          "name": "expiry",
          "type": "uint256"
        },
        {
          "internalType": "uint8",
          "name": "v",
          "type": "uint8"
        },
        {
          "internalType": "bytes32",
          "name": "r",
          "type": "bytes32"
        },
        {
          "internalType": "bytes32",
          "name": "s",
          "type": "bytes32"
        }
      ],
      "name": "delegateBySig",
      "outputs": [],
      "stateMutability": "nonpayable",
      "type": "function"
    },
    {
      "inputs": [
        {
          "internalType": "address",
          "name": "account",
          "type": "address"
        }
      ],
      "name": "delegates",
      "outputs": [
        {
          "internalType": "address",
          "name": "",
          "type": "address"
        }
      ],
      "stateMutability": "view",
      "type": "function"
    },
    {
      "inputs": [],
      "name": "eip712Domain",
      "outputs": [
        {
          "internalType": "bytes1",
          "name": "fields",
          "type": "bytes1"
        },
        {
          "internalType": "string",
          "name": "name",
          "type": "string"
        },
        {
          "internalType": "string",
          "name": "version",
          "type": "string"
        },
        {
          "internalType": "uint256",
          "name": "chainId",
          "type": "uint256"
        },
        {
          "internalType": "address",
          "name": "verifyingContract",
          "type": "address"
        },
        {
          "internalType": "bytes32",
          "name": "salt",
          "type": "bytes32"
        },
        {
          "internalType": "uint256[]",
          "name": "extensions",
          "type": "uint256[]"
        }
      ],
      "stateMutability": "view",
      "type": "function"
    },
    {
      "inputs": [
        {
          "internalType": "uint256",
          "name": "timepoint",
          "type": "uint256"
        }
      ],
      "name": "getPastTotalSupply",
      "outputs": [
        {
          "internalType": "uint256",
          "name": "",
          "type": "uint256"
        }
      ],
      "stateMutability": "view",
      "type": "function"
    },
    {
      "inputs": [
        {
          "internalType": "address",
          "name": "account",
          "type": "address"
        },
        {
          "internalType": "uint256",
          "name": "timepoint",
          "type": "uint256"
        }
      ],
      "name": "getPastVotes",
      "outputs": [
        {
          "internalType": "uint256",
          "name": "",
          "type": "uint256"
        }
      ],
      "stateMutability": "view",
      "type": "function"
    },
    {
      "inputs": [
        {
          "internalType": "address",
          "name": "account",
          "type": "address"
        }
      ],
      "name": "getVotes",
      "outputs": [
        {
          "internalType": "uint256",
          "name": "",
          "type": "uint256"
        }
      ],
      "stateMutability": "view",
      "type": "function"
    },
    {
      "inputs": [],
      "name": "name",
      "outputs": [
        {
          "internalType": "string",
          "name": "",
          "type": "string"
        }
      ],
      "stateMutability": "view",
      "type": "function"
    },
    {
      "inputs": [
        {
          "internalType": "address",
          "name": "owner",
          "type": "address"
        }
      ],
      "name": "nonces",
      "outputs": [
        {
          "internalType": "uint256",
          "name": "",
          "type": "uint256"
        }
      ],
      "stateMutability": "view",
      "type": "function"
    },
    {
      "inputs": [
        {
          "internalType": "address",
          "name": "account",
          "type": "address"
        }
      ],
      "name": "numCheckpoints",
      "outputs": [
        {
          "internalType": "uint32",
          "name": "",
          "type": "uint32"
        }
      ],
      "stateMutability": "view",
      "type": "function"
    },
    {
      "inputs": [],
      "name": "owner",
      "outputs": [
        {
          "internalType": "address",
          "name": "",
          "type": "address"
        }
      ],
      "stateMutability": "view",
      "type": "function"
    },
    {
      "inputs": [
        {
          "internalType": "address",
          "name": "owner",
          "type": "address"
        },
        {
          "internalType": "address",
          "name": "spender",
          "type": "address"
        },
        {
          "internalType": "uint256",
          "name": "value",
          "type": "uint256"
        },
        {
          "internalType": "uint256",
          "name": "deadline",
          "type": "uint256"
        },
        {
          "internalType": "uint8",
          "name": "v",
          "type": "uint8"
        },
        {
          "internalType": "bytes32",
          "name": "r",
          "type": "bytes32"
        },
        {
          "internalType": "bytes32",
          "name": "s",
          "type": "bytes32"
        }
      ],
      "name": "permit",
      "outputs": [],
      "stateMutability": "nonpayable",
      "type": "function"
    },
    {
      "inputs": [],
      "name": "renounceOwnership",
      "outputs": [],
      "stateMutability": "nonpayable",
      "type": "function"
    },
    {
      "inputs": [],
      "name": "symbol",
      "outputs": [
        {
          "internalType": "string",
          "name": "",
          "type": "string"
        }
      ],
      "stateMutability": "view",
      "type": "function"
    },
    {
      "inputs": [],
      "name": "totalSupply",
      "outputs": [
        {
          "internalType": "uint256",
          "name": "",
          "type": "uint256"
        }
      ],
      "stateMutability": "view",
      "type": "function"
    },
    {
      "inputs": [
        {
          "internalType": "address",
          "name": "to",
          "type": "address"
        },
        {
          "internalType": "uint256",
          "name": "value",
          "type": "uint256"
        }
      ],
      "name": "transfer",
      "outputs": [
        {
          "internalType": "bool",
          "name": "",
          "type": "bool"
        }
      ],
      "stateMutability": "nonpayable",
      "type": "function"
    },
    {
      "inputs": [
        {
          "internalType": "address",
          "name": "from",
          "type": "address"
        },
        {
          "internalType": "address",
          "name": "to",
          "type": "address"
        },
        {
          "internalType": "uint256",
          "name": "value",
          "type": "uint256"
        }
      ],
      "name": "transferFrom",
      "outputs": [
        {
          "internalType": "bool",
          "name": "",
          "type": "bool"
        }
      ],
      "stateMutability": "nonpayable",
      "type": "function"
    },
    {
      "inputs": [
        {
          "internalType": "address",
          "name": "newOwner",
          "type": "address"
        }
      ],
      "name": "transferOwnership",
      "outputs": [],
      "stateMutability": "nonpayable",
      "type": "function"
    }
  ],
  "bytecode": "0x610160604052348015610010575f80fd5b5060405161294138038061294183398101604081905261002f916108e5565b806040518060400160405280601581526020017f43727970746f5374617920476f7665726e616e6365000000000000000000000081525080604051806040016040528060018152602001603160f81b8152506040518060400160405280601581526020017f43727970746f5374617920476f7665726e616e636500000000000000000000008152506040518060400160405280600381526020016223a7ab60e91b81525081600390816100e291906109a2565b5060046100ef82826109a2565b506100ff915083905060056101f6565b6101205261010e8160066101f6565b61014052815160208084019190912060e052815190820120610100524660a05261019a60e05161010051604080517f8b73c3c69bb8fe3d512ecc4cf759cc79239f7b179b0ffacaa9a75d522b39400f60208201529081019290925260608201524660808201523060a08201525f9060c00160405160208183030381529060405280519060200120905090565b60805250503060c052506001600160a01b0381166101d257604051631e4fbdf760e01b81525f60048201526024015b60405180910390fd5b6101db81610228565b506101f08169d3c21bcecceda1000000610279565b50610b3a565b5f6020835110156102115761020a836102b1565b9050610222565b8161021c84826109a2565b5060ff90505b92915050565b600b80546001600160a01b038381166001600160a01b0319831681179093556040519116919082907f8be0079c531659141344cd1fd0a4f28419497f9722a3daafe3b4186f6b6457e0905f90a35050565b6001600160a01b0382166102a25760405163ec442f0560e01b81525f60048201526024016101c9565b6102ad5f83836102ee565b5050565b5f80829050601f815111156102db578260405163305a27a960e01b81526004016101c99190610a61565b80516102e682610a96565b179392505050565b6102f98383836102fe565b505050565b610309838383610364565b6001600160a01b038316610359575f61032160025490565b90506001600160d01b038082111561035657604051630e58ae9360e11b815260048101839052602481018290526044016101c9565b50505b6102f983838361048a565b6001600160a01b03831661038e578060025f8282546103839190610acd565b909155506103fe9050565b6001600160a01b0383165f90815260208190526040902054818110156103e05760405163391434e360e21b81526001600160a01b038516600482015260248101829052604481018390526064016101c9565b6001600160a01b0384165f9081526020819052604090209082900390555b6001600160a01b03821661041a57600280548290039055610438565b6001600160a01b0382165f9081526020819052604090208054820190555b816001600160a01b0316836001600160a01b03167fddf252ad1be2c89b69c2b068fc378daa952ba7f163c4a11628f55a4df523b3ef8360405161047d91815260200190565b60405180910390a3505050565b6001600160a01b0383166104b8576104b5600a61089261051260201b176104b084610524565b61055b565b50505b6001600160a01b0382166104e1576104de600a61089d61059060201b176104b084610524565b50505b6001600160a01b038381165f908152600860205260408082205485841683529120546102f99291821691168361059b565b5f61051d8284610ae0565b9392505050565b5f6001600160d01b03821115610557576040516306dfcc6560e41b815260d06004820152602481018390526044016101c9565b5090565b5f806105836105686106eb565b61057b610574886106f9565b868860201c565b879190610740565b915091505b935093915050565b5f61051d8284610b07565b816001600160a01b0316836001600160a01b0316141580156105bc57505f81115b156102f9576001600160a01b03831615610654576001600160a01b0383165f908152600960209081526040822082916106029190610590901b61089d176104b086610524565b6001600160d01b031691506001600160d01b03169150846001600160a01b03165f805160206129218339815191528383604051610649929190918252602082015260400190565b60405180910390a250505b6001600160a01b038216156102f9576001600160a01b0382165f908152600960209081526040822082916106959190610512901b610892176104b086610524565b6001600160d01b031691506001600160d01b03169150836001600160a01b03165f8051602061292183398151915283836040516106dc929190918252602082015260400190565b60405180910390a25050505050565b5f6106f461074d565b905090565b80545f9080156107385761071f83610712600184610b27565b5f91825260209091200190565b54660100000000000090046001600160d01b031661051d565b5f9392505050565b5f80610583858585610757565b5f6106f4436108b3565b82545f9081908015610856575f61077387610712600185610b27565b805490915065ffffffffffff80821691660100000000000090046001600160d01b03169088168211156107b957604051632520601d60e01b815260040160405180910390fd5b8765ffffffffffff168265ffffffffffff16036107f557825465ffffffffffff1666010000000000006001600160d01b03891602178355610848565b6040805180820190915265ffffffffffff808a1682526001600160d01b03808a1660208085019182528d54600181018f555f8f815291909120945191519092166601000000000000029216919091179101555b945085935061058892505050565b50506040805180820190915265ffffffffffff80851682526001600160d01b0380851660208085019182528854600181018a555f8a8152918220955192519093166601000000000000029190931617920191909155905081610588565b5f65ffffffffffff821115610557576040516306dfcc6560e41b815260306004820152602481018390526044016101c9565b5f602082840312156108f5575f80fd5b81516001600160a01b038116811461051d575f80fd5b634e487b7160e01b5f52604160045260245ffd5b600181811c9082168061093357607f821691505b60208210810361095157634e487b7160e01b5f52602260045260245ffd5b50919050565b601f8211156102f957805f5260205f20601f840160051c8101602085101561097c5750805b601f840160051c820191505b8181101561099b575f8155600101610988565b5050505050565b81516001600160401b038111156109bb576109bb61090b565b6109cf816109c9845461091f565b84610957565b602080601f831160018114610a02575f84156109eb5750858301515b5f19600386901b1c1916600185901b178555610a59565b5f85815260208120601f198616915b82811015610a3057888601518255948401946001909101908401610a11565b5085821015610a4d57878501515f19600388901b60f8161c191681555b505060018460011b0185555b505050505050565b602081525f82518060208401528060208501604085015e5f604082850101526040601f19601f83011684010191505092915050565b80516020808301519190811015610951575f1960209190910360031b1b16919050565b634e487b7160e01b5f52601160045260245ffd5b8082018082111561022257610222610ab9565b6001600160d01b03818116838216019080821115610b0057610b00610ab9565b5092915050565b6001600160d01b03828116828216039080821115610b0057610b00610ab9565b8181038181111561022257610222610ab9565b60805160a05160c05160e051610100516101205161014051611d96610b8b5f395f610d0201525f610cd501525f610a4101525f610a1901525f61097401525f61099e01525f6109c80152611d965ff3fe608060405234801561000f575f80fd5b506004361061014b575f3560e01c80637ecebe00116100bb5780637ecebe001461025f57806384b0196e146102725780638da5cb5b1461028d5780638e539e8c1461029e57806391ddadf4146102b157806395d89b41146102d05780639ab24eb0146102d8578063a9059cbb146102eb578063c3cda520146102fe578063d505accf14610311578063dd62ed3e14610324578063f1127ed814610337578063f2fde38b14610376575f80fd5b806306fdde031461014f578063095ea7b31461016d57806318160ddd1461019057806323b872dd146101a2578063313ce567146101b55780633644e515146101c45780633a46b1a8146101cc5780634bf5d7e9146101df578063587cde1e146101e75780635c19a95c146102075780636fcfff451461021c57806370a0823114610244578063715018a614610257575b5f80fd5b610157610389565b604051610164919061198b565b60405180910390f35b61018061017b3660046119b8565b610419565b6040519015158152602001610164565b6002545b604051908152602001610164565b6101806101b03660046119e0565b610432565b60405160128152602001610164565b610194610455565b6101946101da3660046119b8565b610463565b61015761049d565b6101fa6101f5366004611a19565b610515565b6040516101649190611a32565b61021a610215366004611a19565b610532565b005b61022f61022a366004611a19565b610541565b60405163ffffffff9091168152602001610164565b610194610252366004611a19565b61054b565b61021a610565565b61019461026d366004611a19565b610578565b61027a610582565b6040516101649796959493929190611a46565b600b546001600160a01b03166101fa565b6101946102ac366004611add565b6105c4565b6102b96105e8565b60405165ffffffffffff9091168152602001610164565b6101576105f1565b6101946102e6366004611a19565b610600565b6101806102f93660046119b8565b610620565b61021a61030c366004611b04565b61062d565b61021a61031f366004611b58565b6106ee565b610194610332366004611bbd565b610807565b61034a610345366004611bee565b610831565b60408051825165ffffffffffff1681526020928301516001600160d01b03169281019290925201610164565b61021a610384366004611a19565b610855565b60606003805461039890611c2b565b80601f01602080910402602001604051908101604052809291908181526020018280546103c490611c2b565b801561040f5780601f106103e65761010080835404028352916020019161040f565b820191905f5260205f20905b8154815290600101906020018083116103f257829003601f168201915b5050505050905090565b5f336104268185856108a8565b60019150505b92915050565b5f3361043f8582856108ba565b61044a85858561090b565b506001949350505050565b5f61045e610968565b905090565b5f61048d61047083610a91565b6001600160a01b0385165f90815260096020526040902090610adf565b6001600160d01b03169392505050565b60606104a7610b8f565b65ffffffffffff166104b76105e8565b65ffffffffffff16146104dd576040516301bfc1c560e61b815260040160405180910390fd5b5060408051808201909152601d81527f6d6f64653d626c6f636b6e756d6265722666726f6d3d64656661756c74000000602082015290565b6001600160a01b039081165f908152600860205260409020541690565b3361053d8183610b99565b5050565b5f61042c82610c12565b6001600160a01b03165f9081526020819052604090205490565b61056d610c33565b6105765f610c60565b565b5f61042c82610cb1565b5f6060805f805f6060610593610cce565b61059b610cfb565b604080515f80825260208201909252600f60f81b9b939a50919850469750309650945092509050565b5f6105d96105d183610a91565b600a90610adf565b6001600160d01b031692915050565b5f61045e610b8f565b60606004805461039890611c2b565b6001600160a01b0381165f9081526009602052604081206105d990610d28565b5f3361042681858561090b565b8342111561065657604051632341d78760e11b8152600481018590526024015b60405180910390fd5b604080517fe48329057bfd03d55e49b547132e39cffd9c1820ad7b9d4c5307691425d15adf60208201526001600160a01b0388169181019190915260608101869052608081018590525f906106cf906106c79060a00160405160208183030381529060405280519060200120610d5f565b858585610d8b565b90506106db8187610db7565b6106e58188610b99565b50505050505050565b834211156107125760405163313c898160e11b81526004810185905260240161064d565b5f7f6e71edae12b1b97f4d1f60370fef10105fa2faae0126114a169c64845d6126c98888886107408c610df5565b6040805160208101969096526001600160a01b0394851690860152929091166060840152608083015260a082015260c0810186905260e0016040516020818303038152906040528051906020012090505f61079a82610d5f565b90505f6107a982878787610d8b565b9050896001600160a01b0316816001600160a01b0316146107f0576040516325c0072360e11b81526001600160a01b0380831660048301528b16602482015260440161064d565b6107fb8a8a8a6108a8565b50505050505050505050565b6001600160a01b039182165f90815260016020908152604080832093909416825291909152205490565b604080518082019091525f808252602082015261084e8383610e17565b9392505050565b61085d610c33565b6001600160a01b038116610886575f604051631e4fbdf760e01b815260040161064d9190611a32565b61088f81610c60565b50565b5f61084e8284611c77565b5f61084e8284611c9e565b6108b58383836001610e4b565b505050565b5f6108c58484610807565b90505f1981101561090557818110156108f757828183604051637dc7a0d960e11b815260040161064d93929190611cbe565b61090584848484035f610e4b565b50505050565b6001600160a01b038316610934575f604051634b637e8f60e11b815260040161064d9190611a32565b6001600160a01b03821661095d575f60405163ec442f0560e01b815260040161064d9190611a32565b6108b5838383610f1d565b5f306001600160a01b037f0000000000000000000000000000000000000000000000000000000000000000161480156109c057507f000000000000000000000000000000000000000000000000000000000000000046145b156109ea57507f000000000000000000000000000000000000000000000000000000000000000090565b61045e604080517f8b73c3c69bb8fe3d512ecc4cf759cc79239f7b179b0ffacaa9a75d522b39400f60208201527f0000000000000000000000000000000000000000000000000000000000000000918101919091527f000000000000000000000000000000000000000000000000000000000000000060608201524660808201523060a08201525f9060c00160405160208183030381529060405280519060200120905090565b5f80610a9b6105e8565b90508065ffffffffffff168310610ad657604051637669fc0f60e11b81526004810184905265ffffffffffff8216602482015260440161064d565b61084e83610f28565b81545f9081816005811115610b3b575f610af884610f5e565b610b029085611cdf565b5f8881526020902090915081015465ffffffffffff9081169087161015610b2b57809150610b39565b610b36816001611cf2565b92505b505b5f610b48878785856110b1565b90508015610b8257610b6c87610b5f600184611cdf565b5f91825260209091200190565b54600160301b90046001600160d01b0316610b84565b5f5b979650505050505050565b5f61045e43610f28565b5f610ba383610515565b6001600160a01b038481165f8181526008602052604080822080546001600160a01b031916888616908117909155905194955093928516927f3134e8a2e6d97e929a7e54011ea5485d7d196dd5f0ba4d4ef95803e8e3fc257f9190a46108b58183610c0d86611110565b61111a565b6001600160a01b0381165f9081526009602052604081205461042c90611283565b600b546001600160a01b03163314610576573360405163118cdaa760e01b815260040161064d9190611a32565b600b80546001600160a01b038381166001600160a01b0319831681179093556040519116919082907f8be0079c531659141344cd1fd0a4f28419497f9722a3daafe3b4186f6b6457e0905f90a35050565b6001600160a01b0381165f9081526007602052604081205461042c565b606061045e7f000000000000000000000000000000000000000000000000000000000000000060056112b3565b606061045e7f000000000000000000000000000000000000000000000000000000000000000060066112b3565b80545f908015610d5757610d4183610b5f600184611cdf565b54600160301b90046001600160d01b031661084e565b5f9392505050565b5f61042c610d6b610968565b8360405161190160f01b8152600281019290925260228201526042902090565b5f805f80610d9b8888888861135c565b925092509250610dab828261141a565b50909695505050505050565b5f610dc183610df5565b90508082146108b5576040516301d4b62360e61b81526001600160a01b03841660048201526024810182905260440161064d565b6001600160a01b03165f90815260076020526040902080546001810190915590565b604080518082019091525f80825260208201526001600160a01b0383165f90815260096020526040902061084e90836114d2565b6001600160a01b038416610e74575f60405163e602df0560e01b815260040161064d9190611a32565b6001600160a01b038316610e9d575f604051634a1406b160e11b815260040161064d9190611a32565b6001600160a01b038085165f908152600160209081526040808320938716835292905220829055801561090557826001600160a01b0316846001600160a01b03167f8c5be1e5ebec7d5bd14f71427d1e84f3dd0314c0f7b2291e5b200ac8c7c3b92584604051610f0f91815260200190565b60405180910390a350505050565b6108b583838361153f565b5f65ffffffffffff821115610f5a576040516306dfcc6560e41b8152603060048201526024810183905260440161064d565b5090565b5f60018211610f6b575090565b816001600160801b8210610f845760809190911c9060401b5b600160401b8210610f9a5760409190911c9060201b5b6401000000008210610fb15760209190911c9060101b5b620100008210610fc65760109190911c9060081b5b6101008210610fda5760089190911c9060041b5b60108210610fed5760049190911c9060021b5b60048210610ff95760011b5b600302600190811c9081858161101157611011611d05565b048201901c9050600181858161102957611029611d05565b048201901c9050600181858161104157611041611d05565b048201901c9050600181858161105957611059611d05565b048201901c9050600181858161107157611071611d05565b048201901c9050600181858161108957611089611d05565b048201901c90506110a88185816110a2576110a2611d05565b04821190565b90039392505050565b5f5b81831015611108575f6110c684846115a5565b5f8781526020902090915065ffffffffffff86169082015465ffffffffffff1611156110f457809250611102565b6110ff816001611cf2565b93505b506110b3565b509392505050565b5f61042c8261054b565b816001600160a01b0316836001600160a01b03161415801561113b57505f81115b156108b5576001600160a01b038316156111e2576001600160a01b0383165f908152600960205260408120819061117d9061089d611178866115bf565b6115f2565b6001600160d01b031691506001600160d01b03169150846001600160a01b03167fdec2bacdd2f05b59de34da9b523dff8be42e5e38e818c82fdb0bae774387a72483836040516111d7929190918252602082015260400190565b60405180910390a250505b6001600160a01b038216156108b5576001600160a01b0382165f908152600960205260408120819061121a90610892611178866115bf565b6001600160d01b031691506001600160d01b03169150836001600160a01b03167fdec2bacdd2f05b59de34da9b523dff8be42e5e38e818c82fdb0bae774387a7248383604051611274929190918252602082015260400190565b60405180910390a25050505050565b5f63ffffffff821115610f5a576040516306dfcc6560e41b8152602060048201526024810183905260440161064d565b606060ff83146112cd576112c68361162a565b905061042c565b8180546112d990611c2b565b80601f016020809104026020016040519081016040528092919081815260200182805461130590611c2b565b80156113505780601f1061132757610100808354040283529160200191611350565b820191905f5260205f20905b81548152906001019060200180831161133357829003601f168201915b5050505050905061042c565b5f80806fa2a8918ca85bafe22016d0b997e4df60600160ff1b0384111561138b57505f91506003905082611410565b604080515f808252602082018084528a905260ff891692820192909252606081018790526080810186905260019060a0016020604051602081039080840390855afa1580156113dc573d5f803e3d5ffd5b5050604051601f1901519150506001600160a01b03811661140757505f925060019150829050611410565b92505f91508190505b9450945094915050565b5f82600381111561142d5761142d611d19565b03611436575050565b600182600381111561144a5761144a611d19565b036114685760405163f645eedf60e01b815260040160405180910390fd5b600282600381111561147c5761147c611d19565b0361149d5760405163fce698f760e01b81526004810182905260240161064d565b60038260038111156114b1576114b1611d19565b0361053d576040516335e2f38360e21b81526004810182905260240161064d565b604080518082019091525f8082526020820152825f018263ffffffff16815481106114ff576114ff611d2d565b5f9182526020918290206040805180820190915291015465ffffffffffff81168252600160301b90046001600160d01b0316918101919091529392505050565b61154a838383611667565b6001600160a01b03831661159a575f61156260025490565b90506001600160d01b038082111561159757604051630e58ae9360e11b8152600481018390526024810182905260440161064d565b50505b6108b583838361177a565b5f6115b36002848418611d41565b61084e90848416611cf2565b5f6001600160d01b03821115610f5a576040516306dfcc6560e41b815260d060048201526024810183905260440161064d565b5f8061161d6115ff6105e8565b61161561160b88610d28565b868863ffffffff16565b8791906117d9565b915091505b935093915050565b60605f611636836117e6565b6040805160208082528183019092529192505f91906020820181803683375050509182525060208101929092525090565b6001600160a01b038316611691578060025f8282546116869190611cf2565b909155506116ee9050565b6001600160a01b0383165f90815260208190526040902054818110156116d05783818360405163391434e360e21b815260040161064d93929190611cbe565b6001600160a01b0384165f9081526020819052604090209082900390555b6001600160a01b03821661170a57600280548290039055611728565b6001600160a01b0382165f9081526020819052604090208054820190555b816001600160a01b0316836001600160a01b03167fddf252ad1be2c89b69c2b068fc378daa952ba7f163c4a11628f55a4df523b3ef8360405161176d91815260200190565b60405180910390a3505050565b6001600160a01b03831661179c57611799600a610892611178846115bf565b50505b6001600160a01b0382166117be576117bb600a61089d611178846115bf565b50505b6108b56117ca84610515565b6117d384610515565b8361111a565b5f8061161d85858561180d565b5f60ff8216601f81111561042c57604051632cd44ac360e21b815260040160405180910390fd5b82545f9081908015611903575f61182987610b5f600185611cdf565b805490915065ffffffffffff80821691600160301b90046001600160d01b031690881682111561186c57604051632520601d60e01b815260040160405180910390fd5b8765ffffffffffff168265ffffffffffff16036118a557825465ffffffffffff16600160301b6001600160d01b038916021783556118f5565b6040805180820190915265ffffffffffff808a1682526001600160d01b03808a1660208085019182528d54600181018f555f8f81529190912094519151909216600160301b029216919091179101555b945085935061162292505050565b50506040805180820190915265ffffffffffff80851682526001600160d01b0380851660208085019182528854600181018a555f8a815291822095519251909316600160301b029190931617920191909155905081611622565b5f81518084528060208401602086015e5f602082860101526020601f19601f83011685010191505092915050565b602081525f61084e602083018461195d565b80356001600160a01b03811681146119b3575f80fd5b919050565b5f80604083850312156119c9575f80fd5b6119d28361199d565b946020939093013593505050565b5f805f606084860312156119f2575f80fd5b6119fb8461199d565b9250611a096020850161199d565b9150604084013590509250925092565b5f60208284031215611a29575f80fd5b61084e8261199d565b6001600160a01b0391909116815260200190565b60ff60f81b881681525f602060e06020840152611a6660e084018a61195d565b8381036040850152611a78818a61195d565b606085018990526001600160a01b038816608086015260a0850187905284810360c0860152855180825260208088019350909101905f5b81811015611acb57835183529284019291840191600101611aaf565b50909c9b505050505050505050505050565b5f60208284031215611aed575f80fd5b5035919050565b803560ff811681146119b3575f80fd5b5f805f805f8060c08789031215611b19575f80fd5b611b228761199d565b95506020870135945060408701359350611b3e60608801611af4565b92506080870135915060a087013590509295509295509295565b5f805f805f805f60e0888a031215611b6e575f80fd5b611b778861199d565b9650611b856020890161199d565b95506040880135945060608801359350611ba160808901611af4565b925060a0880135915060c0880135905092959891949750929550565b5f8060408385031215611bce575f80fd5b611bd78361199d565b9150611be56020840161199d565b90509250929050565b5f8060408385031215611bff575f80fd5b611c088361199d565b9150602083013563ffffffff81168114611c20575f80fd5b809150509250929050565b600181811c90821680611c3f57607f821691505b602082108103611c5d57634e487b7160e01b5f52602260045260245ffd5b50919050565b634e487b7160e01b5f52601160045260245ffd5b6001600160d01b03818116838216019080821115611c9757611c97611c63565b5092915050565b6001600160d01b03828116828216039080821115611c9757611c97611c63565b6001600160a01b039390931683526020830191909152604082015260600190565b8181038181111561042c5761042c611c63565b8082018082111561042c5761042c611c63565b634e487b7160e01b5f52601260045260245ffd5b634e487b7160e01b5f52602160045260245ffd5b634e487b7160e01b5f52603260045260245ffd5b5f82611d5b57634e487b7160e01b5f52601260045260245ffd5b50049056fea2646970667358221220ea35c87e21106c07cd00d2d990144478bd15be784d8efb568a13925792eb1a6864736f6c63430008190033dec2bacdd2f05b59de34da9b523dff8be42e5e38e818c82fdb0bae774387a724",
  "linkReferences": {},
  "deployedLinkReferences": {}
}