{
  "_format": "hh-sol-artifact-1",
  "contractName": "BuybackEngine",
  "sourceName": "contracts/BuybackEngine.sol",
  "abi": [
    {
      "inputs": [
        {
          "internalType": "address",
          "name": "initialOwner",
          "type": "address"
        },
        {
          "internalType": "address",
          "name": "rewardsToken",
          "type": "address"
        },
        {
          "internalType": "uint256",
          "name": "_weiPerRwd",
          "type": "uint256"
        }
      ],
      "stateMutability": "nonpayable",
      "type": "constructor"
    },
    {
      "inputs": [],
      "name": "BadAmount",
      "type": "error"
    },
    {
      "inputs": [],
      "name": "InsufficientETH",
      "type": "error"
    },
    {
      "inputs": [
        {
          "internalType": "address",
          "name": "owner",
          "type": "address"
        }
      ],
      "name": "OwnableInvalidOwner",
      "type": "error"
    },
    {
      "inputs": [
        {
          "internalType": "address",
          "name": "account",
          "type": "address"
        }
      ],
      "name": "OwnableUnauthorizedAccount",
      "type": "error"
    },
    {
      "anonymous": false,
      "inputs": [
        {
          "indexed": true,
          "internalType": "address",
          "name": "seller",
          "type": "address"
        },
        {
          "indexed": false,
          "internalType": "uint256",
          "name": "rwdAmount",
          "type": "uint256"
        },
        {
          "indexed": false,
          "internalType": "uint256",
          "name": "ethPaid",
          "type": "uint256"
        }
      ],
      "name": "BoughtBackAndBurned",
      "type": "event"
    },
    {
      "anonymous": false,
      "inputs": [
        {
          "indexed": true,
          "internalType": "address",
          "name": "from",
          "type": "address"
        },
        {
          "indexed": false,
          "internalType": "uint256",
          "name": "amountWei",
          "type": "uint256"
        }
      ],
      "name": "Funded",
      "type": "event"
    },
    {
      "anonymous": false,
      "inputs": [
        {
          "indexed": true,
          "internalType": "address",
          "name": "previousOwner",
          "type": "address"
        },
        {
          "indexed": true,
          "internalType": "address",
          "name": "newOwner",
          "type": "address"
        }
      ],
      "name": "OwnershipTransferred",
      "type": "event"
    },
    {
      "anonymous": false,
      "inputs": [
        {
          "indexed": false,
          "internalType": "uint256",
          "name": "weiPerRwd",
          "type": "uint256"
        }
      ],
      "name": "PriceUpdated",
      "type": "event"
    },
    {
      "inputs": [],
      "name": "engineBalance",
      "outputs": [
        {
          "internalType": "uint256",
          "name": "",
          "type": "uint256"
        }
      ],
      "stateMutability": "view",
      "type": "function"
    },
    {
      "inputs": [],
      "name": "owner",
      "outputs": [
        {
          "internalType": "address",
          "name": "",
          "type": "address"
        }
      ],
      "stateMutability": "view",
      "type": "function"
    },
    {
      "inputs": [],
      "name": "renounceOwnership",
      "outputs": [],
      "stateMutability": "nonpayable",
      "type": "function"
    },
    {
      "inputs": [],
      "name": "rewards",
      "outputs": [
        {
          "internalType": "contract ERC20Burnable",
          "name": "",
          "type": "address"
        }
      ],
      "stateMutability": "view",
      "type": "function"
    },
    {
      "inputs": [
        {
          "internalType": "uint256",
          "name": "rwdAmount",
          "type": "uint256"
        }
      ],
      "name": "sellAndBurn",
      "outputs": [],
      "stateMutability": "nonpayable",
      "type": "function"
    },
    {
      "inputs": [
        {
          "internalType": "uint256",
          "name": "_weiPerRwd",
          "type": "uint256"
        }
      ],
      "name": "setPrice",
      "outputs": [],
      "stateMutability": "nonpayable",
      "type": "function"
    },
    {
      "inputs": [
        {
          "internalType": "address",
          "name": "newOwner",
          "type": "address"
        }
      ],
      "name": "transferOwnership",
      "outputs": [],
      "stateMutability": "nonpayable",
      "type": "function"
    },
    {
      "inputs": [],
      "name": "weiPerRwd",
      "outputs": [
        {
          "internalType": "uint256",
          "name": "",
          "type": "uint256"
        }
      ],
      "stateMutability": "view",
      "type": "function"
    },
    {
      "stateMutability": "payable",
      "type": "receive"
    }
  ],
  "bytecode": "0x60a060405234801561000f575f80fd5b5060405161077738038061077783398101604081905261002e916100e7565b826001600160a01b03811661005c57604051631e4fbdf760e01b81525f600482015260240160405180910390fd5b6100658161007d565b506001600160a01b0390911660805260015550610120565b5f80546001600160a01b038381166001600160a01b0319831681178455604051919092169283917f8be0079c531659141344cd1fd0a4f28419497f9722a3daafe3b4186f6b6457e09190a35050565b80516001600160a01b03811681146100e2575f80fd5b919050565b5f805f606084860312156100f9575f80fd5b610102846100cc565b9250610110602085016100cc565b9150604084015190509250925092565b6080516106316101465f395f81816101390152818161028b015261035a01526106315ff3fe60806040526004361061006d575f3560e01c8063012db9a0146100ad578063715018a6146100ce5780638da5cb5b146100e457806391b7f5ed146101095780639ec5a89414610128578063a58e90d21461015b578063d2de069514610170578063f2fde38b1461018f575f80fd5b366100a95760405134815233907f5af8184bef8e4b45eb9f6ed7734d04da38ced226495548f46e0c8ff8d7d9a5249060200160405180910390a2005b5f80fd5b3480156100b8575f80fd5b50475b6040519081526020015b60405180910390f35b3480156100d9575f80fd5b506100e26101ae565b005b3480156100ef575f80fd5b505f546001600160a01b03165b6040516100c5919061053c565b348015610114575f80fd5b506100e2610123366004610550565b6101c1565b348015610133575f80fd5b506100fc7f000000000000000000000000000000000000000000000000000000000000000081565b348015610166575f80fd5b506100bb60015481565b34801561017b575f80fd5b506100e261018a366004610550565b610204565b34801561019a575f80fd5b506100e26101a9366004610567565b610484565b6101b66104c1565b6101bf5f6104ed565b565b6101c96104c1565b60018190556040518181527f66cbca4f3c64fecf1dcb9ce094abcf7f68c3450a1d4e3a8e917dd621edb4ebe09060200160405180910390a150565b805f036102245760405163749b593960e01b815260040160405180910390fd5b5f670de0b6b3a76400006001548361023c9190610594565b61024691906105bd565b90508047101561026957604051631a84bc4160e21b815260040160405180910390fd5b6040516323b872dd60e01b8152336004820152306024820152604481018390527f00000000000000000000000000000000000000000000000000000000000000006001600160a01b0316906323b872dd906064016020604051808303815f875af11580156102d9573d5f803e3d5ffd5b505050506040513d601f19601f820116820180604052508101906102fd91906105dc565b6103445760405162461bcd60e51b81526020600482015260136024820152721d1c985b9cd9995c919c9bdb4819985a5b1959606a1b60448201526064015b60405180910390fd5b604051630852cd8d60e31b8152600481018390527f00000000000000000000000000000000000000000000000000000000000000006001600160a01b0316906342966c68906024015f604051808303815f87803b1580156103a3575f80fd5b505af11580156103b5573d5f803e3d5ffd5b50506040515f925033915083908381818185875af1925050503d805f81146103f8576040519150601f19603f3d011682016040523d82523d5f602084013e6103fd565b606091505b50509050806104445760405162461bcd60e51b8152602060048201526013602482015272115512081d1c985b9cd9995c8819985a5b1959606a1b604482015260640161033b565b604080518481526020810184905233917fbe20bf22efb4e1224d9a34c42a03a8c1aaf96ab1a5c6310f672bdd9192223b7c910160405180910390a2505050565b61048c6104c1565b6001600160a01b0381166104b5575f604051631e4fbdf760e01b815260040161033b919061053c565b6104be816104ed565b50565b5f546001600160a01b031633146101bf573360405163118cdaa760e01b815260040161033b919061053c565b5f80546001600160a01b038381166001600160a01b0319831681178455604051919092169283917f8be0079c531659141344cd1fd0a4f28419497f9722a3daafe3b4186f6b6457e09190a35050565b6001600160a01b0391909116815260200190565b5f60208284031215610560575f80fd5b5035919050565b5f60208284031215610577575f80fd5b81356001600160a01b038116811461058d575f80fd5b9392505050565b80820281158282048414176105b757634e487b7160e01b5f52601160045260245ffd5b92915050565b5f826105d757634e487b7160e01b5f52601260045260245ffd5b500490565b5f602082840312156105ec575f80fd5b8151801515811461058d575f80fdfea264697066735822122091dc515b3233e016fd31968b631c125de0a130e2c635910e2bfb687b52c635df64736f6c63430008190033",
  "linkReferences": {},
  "deployedLinkReferences": {}
}