{
  "_format": "hh-sol-artifact-1",
  "contractName": "Treasury",
  "sourceName": "contracts/Treasury.sol",
  "abi": [
    {
      "inputs": [
        {
          "internalType": "address",
          "name": "initialOwner",
          "type": "address"
        },
        {
          "internalType": "address",
          "name": "_hotelWallet",
          "type": "address"
        },
        {
          "internalType": "address",
          "name": "_staffWallet",
          "type": "address"
        }
      ],
      "stateMutability": "nonpayable",
      "type": "constructor"
    },
    {
      "inputs": [],
      "name": "BadSplit",
      "type": "error"
    },
    {
      "inputs": [
        {
          "internalType": "address",
          "name": "owner",
          "type": "address"
        }
      ],
      "name": "OwnableInvalidOwner",
      "type": "error"
    },
    {
      "inputs": [
        {
          "internalType": "address",
          "name": "account",
          "type": "address"
        }
      ],
      "name": "OwnableUnauthorizedAccount",
      "type": "error"
    },
    {
      "anonymous": false,
      "inputs": [
        {
          "indexed": true,
          "internalType": "address",
          "name": "token",
          "type": "address"
        },
        {
          "indexed": false,
          "internalType": "uint256",
          "name": "hotelAmount",
          "type": "uint256"
        },
        {
          "indexed": false,
          "internalType": "uint256",
          "name": "staffAmount",
          "type": "uint256"
        },
        {
          "indexed": false,
          "internalType": "uint256",
          "name": "buybackAmount",
          "type": "uint256"
        }
      ],
      "name": "Distributed",
      "type": "event"
    },
    {
      "anonymous": false,
      "inputs": [
        {
          "indexed": true,
          "internalType": "address",
          "name": "previousOwner",
          "type": "address"
        },
        {
          "indexed": true,
          "internalType": "address",
          "name": "newOwner",
          "type": "address"
        }
      ],
      "name": "OwnershipTransferred",
      "type": "event"
    },
    {
      "anonymous": false,
      "inputs": [
        {
          "indexed": true,
          "internalType": "address",
          "name": "token",
          "type": "address"
        },
        {
          "indexed": false,
          "internalType": "uint256",
          "name": "amount",
          "type": "uint256"
        },
        {
          "indexed": true,
          "internalType": "address",
          "name": "from",
          "type": "address"
        }
      ],
      "name": "RevenueReceived",
      "type": "event"
    },
    {
      "anonymous": false,
      "inputs": [
        {
          "indexed": false,
          "internalType": "uint16",
          "name": "hotelBps",
          "type": "uint16"
        },
        {
          "indexed": false,
          "internalType": "uint16",
          "name": "staffBps",
          "type": "uint16"
        },
        {
          "indexed": false,
          "internalType": "uint16",
          "name": "buybackBps",
          "type": "uint16"
        }
      ],
      "name": "SplitUpdated",
      "type": "event"
    },
    {
      "inputs": [],
      "name": "buybackBps",
      "outputs": [
        {
          "internalType": "uint16",
          "name": "",
          "type": "uint16"
        }
      ],
      "stateMutability": "view",
      "type": "function"
    },
    {
      "inputs": [
        {
          "internalType": "address",
          "name": "token",
          "type": "address"
        }
      ],
      "name": "distributeERC20",
      "outputs": [],
      "stateMutability": "nonpayable",
      "type": "function"
    },
    {
      "inputs": [],
      "name": "distributeETH",
      "outputs": [],
      "stateMutability": "nonpayable",
      "type": "function"
    },
    {
      "inputs": [],
      "name": "hotelBps",
      "outputs": [
        {
          "internalType": "uint16",
          "name": "",
          "type": "uint16"
        }
      ],
      "stateMutability": "view",
      "type": "function"
    },
    {
      "inputs": [],
      "name": "hotelWallet",
      "outputs": [
        {
          "internalType": "address",
          "name": "",
          "type": "address"
        }
      ],
      "stateMutability": "view",
      "type": "function"
    },
    {
      "inputs": [
        {
          "internalType": "address",
          "name": "token",
          "type": "address"
        },
        {
          "internalType": "uint256",
          "name": "amount",
          "type": "uint256"
        }
      ],
      "name": "notifyERC20",
      "outputs": [],
      "stateMutability": "nonpayable",
      "type": "function"
    },
    {
      "inputs": [],
      "name": "owner",
      "outputs": [
        {
          "internalType": "address",
          "name": "",
          "type": "address"
        }
      ],
      "stateMutability": "view",
      "type": "function"
    },
    {
      "inputs": [],
      "name": "renounceOwnership",
      "outputs": [],
      "stateMutability": "nonpayable",
      "type": "function"
    },
    {
      "inputs": [
        {
          "internalType": "uint16",
          "name": "_hotelBps",
          "type": "uint16"
        },
        {
          "internalType": "uint16",
          "name": "_staffBps",
          "type": "uint16"
        },
        {
          "internalType": "uint16",
          "name": "_buybackBps",
          "type": "uint16"
        }
      ],
      "name": "setSplit",
      "outputs": [],
      "stateMutability": "nonpayable",
      "type": "function"
    },
    {
      "inputs": [
        {
          "internalType": "address",
          "name": "_hotelWallet",
          "type": "address"
        },
        {
          "internalType": "address",
          "name": "_staffWallet",
          "type": "address"
        }
      ],
      "name": "setWallets",
      "outputs": [],
      "stateMutability": "nonpayable",
      "type": "function"
    },
    {
      "inputs": [],
      "name": "staffBps",
      "outputs": [
        {
          "internalType": "uint16",
          "name": "",
          "type": "uint16"
        }
      ],
      "stateMutability": "view",
      "type": "function"
    },
    {
      "inputs": [],
      "name": "staffWallet",
      "outputs": [
        {
          "internalType": "address",
          "name": "",
          "type": "address"
        }
      ],
      "stateMutability": "view",
      "type": "function"
    },
    {
      "inputs": [
        {
          "internalType": "address",
          "name": "newOwner",
          "type": "address"
        }
      ],
      "name": "transferOwnership",
      "outputs": [],
      "stateMutability": "nonpayable",
      "type": "function"
    },
    {
      "stateMutability": "payable",
      "type": "receive"
    }
  ],
  "bytecode": "0x60806040526002805465ffffffffffff60a01b1916643e80bb817760a41b17905534801561002b575f80fd5b50604051610c7a380380610c7a83398101604081905261004a9161011e565b826001600160a01b03811661007857604051631e4fbdf760e01b81525f600482015260240160405180910390fd5b610081816100b4565b50600180546001600160a01b039384166001600160a01b031991821617909155600280549290931691161790555061015e565b5f80546001600160a01b038381166001600160a01b0319831681178455604051919092169283917f8be0079c531659141344cd1fd0a4f28419497f9722a3daafe3b4186f6b6457e09190a35050565b80516001600160a01b0381168114610119575f80fd5b919050565b5f805f60608486031215610130575f80fd5b61013984610103565b925061014760208501610103565b915061015560408501610103565b90509250925092565b610b0f8061016b5f395ff3fe6080604052600436106100a4575f3560e01c80632238df53146100e6578063224987fb1461011b5780632d5577f51461013a5780636defd2261461016e57806370baf0341461018f578063715018a6146101b05780637cade603146101c45780638da5cb5b146101e3578063b8b9b549146101ff578063baa9f0fa14610213578063bce5826914610234578063d3f6a15714610253578063f2fde38b14610272575f80fd5b366100e25760405134815233905f907ff39f1b9c9ea812ede15f9b586074554568e99dd8c2685d0c644d85913953f1829060200160405180910390a3005b5f80fd5b3480156100f1575f80fd5b50600154610105906001600160a01b031681565b604051610112919061091b565b60405180910390f35b348015610126575f80fd5b50600254610105906001600160a01b031681565b348015610145575f80fd5b5060025461015b90600160a01b900461ffff1681565b60405161ffff9091168152602001610112565b348015610179575f80fd5b5061018d610188366004610945565b610291565b005b34801561019a575f80fd5b5060025461015b90600160b01b900461ffff1681565b3480156101bb575f80fd5b5061018d610370565b3480156101cf575f80fd5b5061018d6101de36600461099b565b610383565b3480156101ee575f80fd5b505f546001600160a01b0316610105565b34801561020a575f80fd5b5061018d6103c7565b34801561021e575f80fd5b5060025461015b90600160c01b900461ffff1681565b34801561023f575f80fd5b5061018d61024e3660046109c3565b610584565b34801561025e575f80fd5b5061018d61026d3660046109e3565b61082d565b34801561027d575f80fd5b5061018d61028c3660046109c3565b610863565b6102996108a0565b8061ffff168261ffff168461ffff166102b29190610a28565b6102bc9190610a28565b612710146102dd5760405163bc4f33a360e01b815260040160405180910390fd5b6002805463ffffffff60a01b1916600160a01b61ffff86811691820261ffff60b01b191692909217600160b01b8684169081029190911761ffff60c01b1916600160c01b93861693840217909355604080519182526020820193909352918201527f4e12a8efb27cd27678c329447b46147e38d136682ae8fb37337fc1b2fad14fc59060600160405180910390a1505050565b6103786108a0565b6103815f6108cc565b565b60405181815233906001600160a01b038416907ff39f1b9c9ea812ede15f9b586074554568e99dd8c2685d0c644d85913953f1829060200160405180910390a35050565b475f8190036103d35750565b6002545f90612710906103f190600160a01b900461ffff1684610a41565b6103fb9190610a58565b6002549091505f906127109061041c90600160b01b900461ffff1685610a41565b6104269190610a58565b90505f816104348486610a77565b61043e9190610a77565b6001546040519192505f916001600160a01b039091169085908381818185875af1925050503d805f811461048d576040519150601f19603f3d011682016040523d82523d5f602084013e610492565b606091505b50506002546040519192505f916001600160a01b039091169085908381818185875af1925050503d805f81146104e3576040519150601f19603f3d011682016040523d82523d5f602084013e6104e8565b606091505b505090508180156104f65750805b6105395760405162461bcd60e51b815260206004820152600f60248201526e151c985b9cd9995c8819985a5b1959608a1b60448201526064015b60405180910390fd5b60408051868152602081018690529081018490525f907ff334dc3327c53a5f7fd39f983cbad4306ff127f0ecdadf23c6f361eca5358c329060600160405180910390a2505050505050565b6040516370a0823160e01b81525f906001600160a01b038316906370a08231906105b290309060040161091b565b602060405180830381865afa1580156105cd573d5f803e3d5ffd5b505050506040513d601f19601f820116820180604052508101906105f19190610a8a565b9050805f036105fe575050565b6002545f906127109061061c90600160a01b900461ffff1684610a41565b6106269190610a58565b6002549091505f906127109061064790600160b01b900461ffff1685610a41565b6106519190610a58565b90505f8161065f8486610a77565b6106699190610a77565b60015460405163a9059cbb60e01b81529192506001600160a01b038088169263a9059cbb9261069e9216908790600401610aa1565b6020604051808303815f875af11580156106ba573d5f803e3d5ffd5b505050506040513d601f19601f820116820180604052508101906106de9190610aba565b6107225760405162461bcd60e51b81526020600482015260156024820152741d1c985b9cd9995c881a1bdd195b0819985a5b1959605a1b6044820152606401610530565b60025460405163a9059cbb60e01b81526001600160a01b038781169263a9059cbb9261075692909116908690600401610aa1565b6020604051808303815f875af1158015610772573d5f803e3d5ffd5b505050506040513d601f19601f820116820180604052508101906107969190610aba565b6107da5760405162461bcd60e51b81526020600482015260156024820152741d1c985b9cd9995c881cdd1859998819985a5b1959605a1b6044820152606401610530565b60408051848152602081018490529081018290526001600160a01b038616907ff334dc3327c53a5f7fd39f983cbad4306ff127f0ecdadf23c6f361eca5358c329060600160405180910390a25050505050565b6108356108a0565b600180546001600160a01b039384166001600160a01b03199182161790915560028054929093169116179055565b61086b6108a0565b6001600160a01b038116610894575f604051631e4fbdf760e01b8152600401610530919061091b565b61089d816108cc565b50565b5f546001600160a01b03163314610381573360405163118cdaa760e01b8152600401610530919061091b565b5f80546001600160a01b038381166001600160a01b0319831681178455604051919092169283917f8be0079c531659141344cd1fd0a4f28419497f9722a3daafe3b4186f6b6457e09190a35050565b6001600160a01b0391909116815260200190565b803561ffff81168114610940575f80fd5b919050565b5f805f60608486031215610957575f80fd5b6109608461092f565b925061096e6020850161092f565b915061097c6040850161092f565b90509250925092565b80356001600160a01b0381168114610940575f80fd5b5f80604083850312156109ac575f80fd5b6109b583610985565b946020939093013593505050565b5f602082840312156109d3575f80fd5b6109dc82610985565b9392505050565b5f80604083850312156109f4575f80fd5b6109fd83610985565b9150610a0b60208401610985565b90509250929050565b634e487b7160e01b5f52601160045260245ffd5b80820180821115610a3b57610a3b610a14565b92915050565b8082028115828204841417610a3b57610a3b610a14565b5f82610a7257634e487b7160e01b5f52601260045260245ffd5b500490565b81810381811115610a3b57610a3b610a14565b5f60208284031215610a9a575f80fd5b5051919050565b6001600160a01b03929092168252602082015260400190565b5f60208284031215610aca575f80fd5b815180151581146109dc575f80fdfea2646970667358221220410e23a0232e3dee72047533e5e9650778de5d41e8be41a90d9918d57d023c5d64736f6c63430008190033",
  "linkReferences": {},
  "deployedLinkReferences": {}
}