{
  "_format": "hh-sol-artifact-1",
  "contractName": "BookingNFT",
  "sourceName": "contracts/BookingNFT.sol",
  "abi": [
    {
      "inputs": [
        {
          "internalType": "address",
          "name": "initialOwner",
          "type": "address"
        }
      ],
      "stateMutability": "nonpayable",
      "type": "constructor"
    },
    {
      "inputs": [],
      "name": "AlreadyMinted",
      "type": "error"
    },
    {
      "inputs": [
        {
          "internalType": "address",
          "name": "sender",
          "type": "address"
        },
        {
          "internalType": "uint256",
          "name": "tokenId",
          "type": "uint256"
        },
        {
          "internalType": "address",
          "name": "owner",
          "type": "address"
        }
      ],
      "name": "ERC721IncorrectOwner",
      "type": "error"
    },
    {
      "inputs": [
        {
          "internalType": "address",
          "name": "operator",
          "type": "address"
        },
        {
          "internalType": "uint256",
          "name": "tokenId",
          "type": "uint256"
        }
      ],
      "name": "ERC721InsufficientApproval",
      "type": "error"
    },
    {
      "inputs": [
        {
          "internalType": "address",
          "name": "approver",
          "type": "address"
        }
      ],
      "name": "ERC721InvalidApprover",
      "type": "error"
    },
    {
      "inputs": [
        {
          "internalType": "address",
          "name": "operator",
          "type": "address"
        }
      ],
      "name": "ERC721InvalidOperator",
      "type": "error"
    },
    {
      "inputs": [
        {
          "internalType": "address",
          "name": "owner",
          "type": "address"
        }
      ],
      "name": "ERC721InvalidOwner",
      "type": "error"
    },
    {
      "inputs": [
        {
          "internalType": "address",
          "name": "receiver",
          "type": "address"
        }
      ],
      "name": "ERC721InvalidReceiver",
      "type": "error"
    },
    {
      "inputs": [
        {
          "internalType": "address",
          "name": "sender",
          "type": "address"
        }
      ],
      "name": "ERC721InvalidSender",
      "type": "error"
    },
    {
      "inputs": [
        {
          "internalType": "uint256",
          "name": "tokenId",
          "type": "uint256"
        }
      ],
      "name": "ERC721NonexistentToken",
      "type": "error"
    },
    {
      "inputs": [],
      "name": "NonTransferable",
      "type": "error"
    },
    {
      "inputs": [
        {
          "internalType": "address",
          "name": "owner",
          "type": "address"
        }
      ],
      "name": "OwnableInvalidOwner",
      "type": "error"
    },
    {
      "inputs": [
        {
          "internalType": "address",
          "name": "account",
          "type": "address"
        }
      ],
      "name": "OwnableUnauthorizedAccount",
      "type": "error"
    },
    {
      "anonymous": false,
      "inputs": [
        {
          "indexed": true,
          "internalType": "address",
          "name": "owner",
          "type": "address"
        },
        {
          "indexed": true,
          "internalType": "address",
          "name": "approved",
          "type": "address"
        },
        {
          "indexed": true,
          "internalType": "uint256",
          "name": "tokenId",
          "type": "uint256"
        }
      ],
      "name": "Approval",
      "type": "event"
    },
    {
      "anonymous": false,
      "inputs": [
        {
          "indexed": true,
          "internalType": "address",
          "name": "owner",
          "type": "address"
        },
        {
          "indexed": true,
          "internalType": "address",
          "name": "operator",
          "type": "address"
        },
        {
          "indexed": false,
          "internalType": "bool",
          "name": "approved",
          "type": "bool"
        }
      ],
      "name": "ApprovalForAll",
      "type": "event"
    },
    {
      "anonymous": false,
      "inputs": [
        {
          "indexed": true,
          "internalType": "address",
          "name": "previousOwner",
          "type": "address"
        },
        {
          "indexed": true,
          "internalType": "address",
          "name": "newOwner",
          "type": "address"
        }
      ],
      "name": "OwnershipTransferred",
      "type": "event"
    },
    {
      "anonymous": false,
      "inputs": [
        {
          "indexed": true,
          "internalType": "address",
          "name": "from",
          "type": "address"
        },
        {
          "indexed": true,
          "internalType": "address",
          "name": "to",
          "type": "address"
        },
        {
          "indexed": true,
          "internalType": "uint256",
          "name": "tokenId",
          "type": "uint256"
        }
      ],
      "name": "Transfer",
      "type": "event"
    },
    {
      "inputs": [
        {
          "internalType": "address",
          "name": "to",
          "type": "address"
        },
        {
          "internalType": "uint256",
          "name": "tokenId",
          "type": "uint256"
        }
      ],
      "name": "approve",
      "outputs": [],
      "stateMutability": "nonpayable",
      "type": "function"
    },
    {
      "inputs": [
        {
          "internalType": "address",
          "name": "owner",
          "type": "address"
        }
      ],
      "name": "balanceOf",
      "outputs": [
        {
          "internalType": "uint256",
          "name": "",
          "type": "uint256"
        }
      ],
      "stateMutability": "view",
      "type": "function"
    },
    {
      "inputs": [
        {
          "internalType": "uint256",
          "name": "",
          "type": "uint256"
        }
      ],
      "name": "bookingByTokenId",
      "outputs": [
        {
          "internalType": "uint256",
          "name": "reservaId",
          "type": "uint256"
        },
        {
          "internalType": "uint64",
          "name": "checkIn",
          "type": "uint64"
        },
        {
          "internalType": "uint64",
          "name": "checkOut",
          "type": "uint64"
        },
        {
          "internalType": "uint32",
          "name": "noches",
          "type": "uint32"
        },
        {
          "internalType": "address",
          "name": "paidToken",
          "type": "address"
        },
        {
          "internalType": "uint256",
          "name": "amount",
          "type": "uint256"
        }
      ],
      "stateMutability": "view",
      "type": "function"
    },
    {
      "inputs": [
        {
          "internalType": "uint256",
          "name": "tokenId",
          "type": "uint256"
        }
      ],
      "name": "getApproved",
      "outputs": [
        {
          "internalType": "address",
          "name": "",
          "type": "address"
        }
      ],
      "stateMutability": "view",
      "type": "function"
    },
    {
      "inputs": [
        {
          "internalType": "address",
          "name": "owner",
          "type": "address"
        },
        {
          "internalType": "address",
          "name": "operator",
          "type": "address"
        }
      ],
      "name": "isApprovedForAll",
      "outputs": [
        {
          "internalType": "bool",
          "name": "",
          "type": "bool"
        }
      ],
      "stateMutability": "view",
      "type": "function"
    },
    {
      "inputs": [
        {
          "internalType": "address",
          "name": "to",
          "type": "address"
        },
        {
          "internalType": "uint256",
          "name": "reservaId",
          "type": "uint256"
        },
        {
          "internalType": "uint64",
          "name": "checkIn",
          "type": "uint64"
        },
        {
          "internalType": "uint64",
          "name": "checkOut",
          "type": "uint64"
        },
        {
          "internalType": "uint32",
          "name": "noches",
          "type": "uint32"
        },
        {
          "internalType": "address",
          "name": "paidToken",
          "type": "address"
        },
        {
          "internalType": "uint256",
          "name": "amount",
          "type": "uint256"
        }
      ],
      "name": "mint",
      "outputs": [
        {
          "internalType": "uint256",
          "name": "tokenId",
          "type": "uint256"
        }
      ],
      "stateMutability": "nonpayable",
      "type": "function"
    },
    {
      "inputs": [],
      "name": "name",
      "outputs": [
        {
          "internalType": "string",
          "name": "",
          "type": "string"
        }
      ],
      "stateMutability": "view",
      "type": "function"
    },
    {
      "inputs": [],
      "name": "nextId",
      "outputs": [
        {
          "internalType": "uint256",
          "name": "",
          "type": "uint256"
        }
      ],
      "stateMutability": "view",
      "type": "function"
    },
    {
      "inputs": [],
      "name": "owner",
      "outputs": [
        {
          "internalType": "address",
          "name": "",
          "type": "address"
        }
      ],
      "stateMutability": "view",
      "type": "function"
    },
    {
      "inputs": [
        {
          "internalType": "uint256",
          "name": "tokenId",
          "type": "uint256"
        }
      ],
      "name": "ownerOf",
      "outputs": [
        {
          "internalType": "address",
          "name": "",
          "type": "address"
        }
      ],
      "stateMutability": "view",
      "type": "function"
    },
    {
      "inputs": [],
      "name": "renounceOwnership",
      "outputs": [],
      "stateMutability": "nonpayable",
      "type": "function"
    },
    {
      "inputs": [
        {
          "internalType": "address",
          "name": "from",
          "type": "address"
        },
        {
          "internalType": "address",
          "name": "to",
          "type": "address"
        },
        {
          "internalType": "uint256",
          "name": "tokenId",
          "type": "uint256"
        }
      ],
      "name": "safeTransferFrom",
      "outputs": [],
      "stateMutability": "nonpayable",
      "type": "function"
    },
    {
      "inputs": [
        {
          "internalType": "address",
          "name": "from",
          "type": "address"
        },
        {
          "internalType": "address",
          "name": "to",
          "type": "address"
        },
        {
          "internalType": "uint256",
          "name": "tokenId",
          "type": "uint256"
        },
        {
          "internalType": "bytes",
          "name": "data",
          "type": "bytes"
        }
      ],
      "name": "safeTransferFrom",
      "outputs": [],
      "stateMutability": "nonpayable",
      "type": "function"
    },
    {
      "inputs": [
        {
          "internalType": "address",
          "name": "operator",
          "type": "address"
        },
        {
          "internalType": "bool",
          "name": "approved",
          "type": "bool"
        }
      ],
      "name": "setApprovalForAll",
      "outputs": [],
      "stateMutability": "nonpayable",
      "type": "function"
    },
    {
      "inputs": [
        {
          "internalType": "bytes4",
          "name": "interfaceId",
          "type": "bytes4"
        }
      ],
      "name": "supportsInterface",
      "outputs": [
        {
          "internalType": "bool",
          "name": "",
          "type": "bool"
        }
      ],
      "stateMutability": "view",
      "type": "function"
    },
    {
      "inputs": [],
      "name": "symbol",
      "outputs": [
        {
          "internalType": "string",
          "name": "",
          "type": "string"
        }
      ],
      "stateMutability": "view",
      "type": "function"
    },
    {
      "inputs": [
        {
          "internalType": "uint256",
          "name": "",
          "type": "uint256"
        }
      ],
      "name": "tokenIdByReservaId",
      "outputs": [
        {
          "internalType": "uint256",
          "name": "",
          "type": "uint256"
        }
      ],
      "stateMutability": "view",
      "type": "function"
    },
    {
      "inputs": [
        {
          "internalType": "uint256",
          "name": "tokenId",
          "type": "uint256"
        }
      ],
      "name": "tokenURI",
      "outputs": [
        {
          "internalType": "string",
          "name": "",
          "type": "string"
        }
      ],
      "stateMutability": "view",
      "type": "function"
    },
    {
      "inputs": [
        {
          "internalType": "address",
          "name": "from",
          "type": "address"
        },
        {
          "internalType": "address",
          "name": "to",
          "type": "address"
        },
        {
          "internalType": "uint256",
          "name": "tokenId",
          "type": "uint256"
        }
      ],
      "name": "transferFrom",
      "outputs": [],
      "stateMutability": "nonpayable",
      "type": "function"
    },
    {
      "inputs": [
        {
          "internalType": "address",
          "name": "newOwner",
          "type": "address"
        }
      ],
      "name": "transferOwnership",
      "outputs": [],
      "stateMutability": "nonpayable",
      "type": "function"
    }
  ],
  "bytecode": "0x60806040526001600755348015610014575f80fd5b5060405161161b38038061161b83398101604081905261003391610128565b806040518060400160405280601281526020017143727970746f5374617920426f6f6b696e6760701b81525060405180604001604052806004815260200163424f4f4b60e01b815250815f908161008a91906101ed565b50600161009782826101ed565b5050506001600160a01b0381166100c757604051631e4fbdf760e01b81525f600482015260240160405180910390fd5b6100d0816100d7565b50506102ac565b600680546001600160a01b038381166001600160a01b0319831681179093556040519116919082907f8be0079c531659141344cd1fd0a4f28419497f9722a3daafe3b4186f6b6457e0905f90a35050565b5f60208284031215610138575f80fd5b81516001600160a01b038116811461014e575f80fd5b9392505050565b634e487b7160e01b5f52604160045260245ffd5b600181811c9082168061017d57607f821691505b60208210810361019b57634e487b7160e01b5f52602260045260245ffd5b50919050565b601f8211156101e857805f5260205f20601f840160051c810160208510156101c65750805b601f840160051c820191505b818110156101e5575f81556001016101d2565b50505b505050565b81516001600160401b0381111561020657610206610155565b61021a816102148454610169565b846101a1565b602080601f83116001811461024d575f84156102365750858301515b5f19600386901b1c1916600185901b1785556102a4565b5f85815260208120601f198616915b8281101561027b5788860151825594840194600190910190840161025c565b508582101561029857878501515f19600388901b60f8161c191681555b505060018460011b0185555b505050505050565b611362806102b95f395ff3fe608060405234801561000f575f80fd5b5060043610610109575f3560e01c80638da5cb5b1161009a5780638da5cb5b146101ea57806395d89b41146101fb578063a22cb46514610203578063b88d4fde14610216578063c87b56dd14610229578063e985e9c51461023c578063ebb09b111461024f578063f2fde38b14610262578063f861b50514610275578063f92915321461031e575f80fd5b806301ffc9a71461010d57806306fdde0314610135578063081812fc1461014a578063095ea7b31461016a57806323b872dd1461017f57806342842e0e1461019257806361b8ce8c146101a55780636352211e146101bc57806370a08231146101cf578063715018a6146101e2575b5f80fd5b61012061011b366004610f4e565b61033d565b60405190151581526020015b60405180910390f35b61013d61038e565b60405161012c9190610f97565b61015d610158366004610fa9565b61041d565b60405161012c9190610fc0565b61017d610178366004610fef565b610431565b005b61017d61018d366004611017565b610440565b61017d6101a0366004611017565b6104d2565b6101ae60075481565b60405190815260200161012c565b61015d6101ca366004610fa9565b6104f1565b6101ae6101dd366004611050565b6104fb565b61017d610540565b6006546001600160a01b031661015d565b61013d610553565b61017d610211366004611069565b610562565b61017d6102243660046110b6565b61056d565b61013d610237366004610fa9565b610585565b61012061024a36600461118a565b6105f6565b6101ae61025d3660046111d1565b610623565b61017d610270366004611050565b610756565b6102d6610283366004610fa9565b60086020525f9081526040902080546001820154600283015460039093015491926001600160401b0380831693600160401b840490911692600160801b900463ffffffff16916001600160a01b03169086565b604080519687526001600160401b039586166020880152939094169285019290925263ffffffff1660608401526001600160a01b0316608083015260a082015260c00161012c565b6101ae61032c366004610fa9565b60096020525f908152604090205481565b5f6001600160e01b031982166380ac58cd60e01b148061036d57506001600160e01b03198216635b5e139f60e01b145b8061038857506301ffc9a760e01b6001600160e01b03198316145b92915050565b60605f805461039c9061124e565b80601f01602080910402602001604051908101604052809291908181526020018280546103c89061124e565b80156104135780601f106103ea57610100808354040283529160200191610413565b820191905f5260205f20905b8154815290600101906020018083116103f657829003601f168201915b5050505050905090565b5f61042782610793565b50610388826107ca565b61043c8282336107e4565b5050565b6001600160a01b038216610472575f604051633250574960e11b81526004016104699190610fc0565b60405180910390fd5b5f61047e8383336107f1565b9050836001600160a01b0316816001600160a01b0316146104cc576040516364283d7b60e01b81526001600160a01b0380861660048301526024820184905282166044820152606401610469565b50505050565b6104ec83838360405180602001604052805f81525061056d565b505050565b5f61038882610793565b5f6001600160a01b038216610525575f6040516322718ad960e21b81526004016104699190610fc0565b506001600160a01b03165f9081526003602052604090205490565b610548610850565b6105515f61087d565b565b60606001805461039c9061124e565b61043c3383836108ce565b610578848484610440565b6104cc3385858585610963565b606061059082610793565b505f6105a660408051602081019091525f815290565b90505f8151116105c45760405180602001604052805f8152506105ef565b806105ce84610a79565b6040516020016105df92919061129d565b6040516020818303038152906040525b9392505050565b6001600160a01b039182165f90815260056020908152604080832093909416825291909152205460ff1690565b5f61062c610850565b5f878152600960205260409020541561065857604051631bbdf5c560e31b815260040160405180910390fd5b60078054905f610667836112b1565b9190505590506106778882610b08565b6040805160c0810182528881526001600160401b03978816602080830191825297891682840190815263ffffffff978816606084019081526001600160a01b039788166080850190815260a085019788525f87815260088c5286812095518655935160018601805494519351909b16600160801b0263ffffffff60801b19938e16600160401b026001600160801b031990951691909d16179290921716999099179096559651600288018054919095166001600160a01b0319909116179093559051600390950194909455938152600990915291909120819055919050565b61075e610850565b6001600160a01b038116610787575f604051631e4fbdf760e01b81526004016104699190610fc0565b6107908161087d565b50565b5f8061079e83610b21565b90506001600160a01b03811661038857604051637e27328960e01b815260048101849052602401610469565b5f908152600460205260409020546001600160a01b031690565b6104ec8383836001610b3b565b5f806107fc84610b21565b90506001600160a01b0381161580159061081e57506001600160a01b03851615155b1561083c57604051639cbe235760e01b815260040160405180910390fd5b610847858585610c36565b95945050505050565b6006546001600160a01b03163314610551573360405163118cdaa760e01b81526004016104699190610fc0565b600680546001600160a01b038381166001600160a01b0319831681179093556040519116919082907f8be0079c531659141344cd1fd0a4f28419497f9722a3daafe3b4186f6b6457e0905f90a35050565b6001600160a01b0382166108f75781604051630b61174360e31b81526004016104699190610fc0565b6001600160a01b038381165f81815260056020908152604080832094871680845294825291829020805460ff191686151590811790915591519182527f17307eab39ab6107e8899845ad3d59bd9653f200f220920489ca2b5937696c31910160405180910390a3505050565b6001600160a01b0383163b15610a7257604051630a85bd0160e11b81526001600160a01b0384169063150b7a02906109a59088908890879087906004016112d5565b6020604051808303815f875af19250505080156109df575060408051601f3d908101601f191682019092526109dc91810190611311565b60015b610a3d573d808015610a0c576040519150601f19603f3d011682016040523d82523d5f602084013e610a11565b606091505b5080515f03610a355783604051633250574960e11b81526004016104699190610fc0565b805160208201fd5b6001600160e01b03198116630a85bd0160e11b14610a705783604051633250574960e11b81526004016104699190610fc0565b505b5050505050565b60605f610a8583610d23565b60010190505f816001600160401b03811115610aa357610aa36110a2565b6040519080825280601f01601f191660200182016040528015610acd576020820181803683370190505b5090508181016020015b5f19016f181899199a1a9b1b9c1cb0b131b232b360811b600a86061a8153600a8504945084610ad757509392505050565b61043c828260405180602001604052805f815250610df8565b5f908152600260205260409020546001600160a01b031690565b8080610b4f57506001600160a01b03821615155b15610c07575f610b5e84610793565b90506001600160a01b03831615801590610b8a5750826001600160a01b0316816001600160a01b031614155b8015610b9d5750610b9b81846105f6565b155b15610bbd578260405163a9fbf51f60e01b81526004016104699190610fc0565b8115610c055783856001600160a01b0316826001600160a01b03167f8c5be1e5ebec7d5bd14f71427d1e84f3dd0314c0f7b2291e5b200ac8c7c3b92560405160405180910390a45b505b50505f90815260046020526040902080546001600160a01b0319166001600160a01b0392909216919091179055565b5f80610c4184610b21565b90506001600160a01b03831615610c5d57610c5d818486610e0f565b6001600160a01b03811615610c9757610c785f855f80610b3b565b6001600160a01b0381165f90815260036020526040902080545f190190555b6001600160a01b03851615610cc5576001600160a01b0385165f908152600360205260409020805460010190555b5f8481526002602052604080822080546001600160a01b0319166001600160a01b0389811691821790925591518793918516917fddf252ad1be2c89b69c2b068fc378daa952ba7f163c4a11628f55a4df523b3ef91a4949350505050565b5f8072184f03e93ff9f4daa797ed6e38ed64bf6a1f0160401b8310610d615772184f03e93ff9f4daa797ed6e38ed64bf6a1f0160401b830492506040015b6904ee2d6d415b85acef8160201b8310610d8b576904ee2d6d415b85acef8160201b830492506020015b662386f26fc100008310610da957662386f26fc10000830492506010015b6305f5e1008310610dc1576305f5e100830492506008015b6127108310610dd557612710830492506004015b60648310610de7576064830492506002015b600a83106103885760010192915050565b610e028383610e73565b6104ec335f858585610963565b610e1a838383610ed4565b6104ec576001600160a01b038316610e4857604051637e27328960e01b815260048101829052602401610469565b60405163177e802f60e01b81526001600160a01b038316600482015260248101829052604401610469565b6001600160a01b038216610e9c575f604051633250574960e11b81526004016104699190610fc0565b5f610ea883835f6107f1565b90506001600160a01b038116156104ec575f6040516339e3563760e11b81526004016104699190610fc0565b5f6001600160a01b03831615801590610f315750826001600160a01b0316846001600160a01b03161480610f0d5750610f0d84846105f6565b80610f315750826001600160a01b0316610f26836107ca565b6001600160a01b0316145b949350505050565b6001600160e01b031981168114610790575f80fd5b5f60208284031215610f5e575f80fd5b81356105ef81610f39565b5f81518084528060208401602086015e5f602082860101526020601f19601f83011685010191505092915050565b602081525f6105ef6020830184610f69565b5f60208284031215610fb9575f80fd5b5035919050565b6001600160a01b0391909116815260200190565b80356001600160a01b0381168114610fea575f80fd5b919050565b5f8060408385031215611000575f80fd5b61100983610fd4565b946020939093013593505050565b5f805f60608486031215611029575f80fd5b61103284610fd4565b925061104060208501610fd4565b9150604084013590509250925092565b5f60208284031215611060575f80fd5b6105ef82610fd4565b5f806040838503121561107a575f80fd5b61108383610fd4565b915060208301358015158114611097575f80fd5b809150509250929050565b634e487b7160e01b5f52604160045260245ffd5b5f805f80608085870312156110c9575f80fd5b6110d285610fd4565b93506110e060208601610fd4565b92506040850135915060608501356001600160401b0380821115611102575f80fd5b818701915087601f830112611115575f80fd5b813581811115611127576111276110a2565b604051601f8201601f19908116603f0116810190838211818310171561114f5761114f6110a2565b816040528281528a6020848701011115611167575f80fd5b826020860160208301375f60208483010152809550505050505092959194509250565b5f806040838503121561119b575f80fd5b6111a483610fd4565b91506111b260208401610fd4565b90509250929050565b80356001600160401b0381168114610fea575f80fd5b5f805f805f805f60e0888a0312156111e7575f80fd5b6111f088610fd4565b965060208801359550611205604089016111bb565b9450611213606089016111bb565b9350608088013563ffffffff8116811461122b575f80fd5b925061123960a08901610fd4565b915060c0880135905092959891949750929550565b600181811c9082168061126257607f821691505b60208210810361128057634e487b7160e01b5f52602260045260245ffd5b50919050565b5f81518060208401855e5f93019283525090919050565b5f610f316112ab8386611286565b84611286565b5f600182016112ce57634e487b7160e01b5f52601160045260245ffd5b5060010190565b6001600160a01b03858116825284166020820152604081018390526080606082018190525f9061130790830184610f69565b9695505050505050565b5f60208284031215611321575f80fd5b81516105ef81610f3956fea264697066735822122020ad5f808c60c16f5a12dc1d1819b89be7b3410025fc757101dfc9f824ace1ad64736f6c63430008190033",
  "linkReferences": {},
  "deployedLinkReferences": {}
}