{
  "_format": "hh-sol-artifact-1",
  "contractName": "Hotel",
  "sourceName": "contracts/Hotel.sol",
  "abi": [
    {
      "inputs": [
        {
          "internalType": "address",
          "name": "usdcAddress",
          "type": "address"
        }
      ],
      "stateMutability": "nonpayable",
      "type": "constructor"
    },
    {
      "anonymous": false,
      "inputs": [
        {
          "indexed": false,
          "internalType": "uint256",
          "name": "reservaId",
          "type": "uint256"
        },
        {
          "indexed": false,
          "internalType": "address",
          "name": "payer",
          "type": "address"
        },
        {
          "indexed": false,
          "internalType": "uint256",
          "name": "amountWei",
          "type": "uint256"
        },
        {
          "indexed": false,
          "internalType": "bytes32",
          "name": "txRef",
          "type": "bytes32"
        }
      ],
      "name": "ReservaPagada",
      "type": "event"
    },
    {
      "anonymous": false,
      "inputs": [
        {
          "indexed": false,
          "internalType": "uint256",
          "name": "reservaId",
          "type": "uint256"
        },
        {
          "indexed": false,
          "internalType": "address",
          "name": "payer",
          "type": "address"
        },
        {
          "indexed": false,
          "internalType": "uint256",
          "name": "amount",
          "type": "uint256"
        },
        {
          "indexed": false,
          "internalType": "address",
          "name": "token",
          "type": "address"
        },
        {
          "indexed": false,
          "internalType": "bytes32",
          "name": "txRef",
          "type": "bytes32"
        }
      ],
      "name": "ReservaPagadaUSDC",
      "type": "event"
    },
    {
      "anonymous": false,
      "inputs": [
        {
          "indexed": false,
          "internalType": "uint256",
          "name": "id",
          "type": "uint256"
        },
        {
          "indexed": false,
          "internalType": "address",
          "name": "guest",
          "type": "address"
        },
        {
          "indexed": false,
          "internalType": "uint256",
          "name": "price",
          "type": "uint256"
        }
      ],
      "name": "RoomBooked",
      "type": "event"
    },
    {
      "anonymous": false,
      "inputs": [
        {
          "indexed": false,
          "internalType": "uint256",
          "name": "id",
          "type": "uint256"
        },
        {
          "indexed": false,
          "internalType": "string",
          "name": "name",
          "type": "string"
        },
        {
          "indexed": false,
          "internalType": "uint256",
          "name": "price",
          "type": "uint256"
        },
        {
          "indexed": false,
          "internalType": "string",
          "name": "imageUrl",
          "type": "string"
        }
      ],
      "name": "RoomCreated",
      "type": "event"
    },
    {
      "inputs": [
        {
          "internalType": "string",
          "name": "_name",
          "type": "string"
        },
        {
          "internalType": "uint256",
          "name": "_price",
          "type": "uint256"
        },
        {
          "internalType": "string",
          "name": "_imageUrl",
          "type": "string"
        }
      ],
      "name": "addRoom",
      "outputs": [],
      "stateMutability": "nonpayable",
      "type": "function"
    },
    {
      "inputs": [
        {
          "internalType": "uint256",
          "name": "_roomId",
          "type": "uint256"
        }
      ],
      "name": "bookRoom",
      "outputs": [],
      "stateMutability": "payable",
      "type": "function"
    },
    {
      "inputs": [],
      "name": "owner",
      "outputs": [
        {
          "internalType": "address payable",
          "name": "",
          "type": "address"
        }
      ],
      "stateMutability": "view",
      "type": "function"
    },
    {
      "inputs": [
        {
          "internalType": "uint256",
          "name": "reservaId",
          "type": "uint256"
        }
      ],
      "name": "pagarReserva",
      "outputs": [],
      "stateMutability": "payable",
      "type": "function"
    },
    {
      "inputs": [
        {
          "internalType": "uint256",
          "name": "reservaId",
          "type": "uint256"
        },
        {
          "internalType": "uint256",
          "name": "amount",
          "type": "uint256"
        }
      ],
      "name": "pagarReservaUSDC",
      "outputs": [],
      "stateMutability": "nonpayable",
      "type": "function"
    },
    {
      "inputs": [
        {
          "internalType": "uint256",
          "name": "",
          "type": "uint256"
        }
      ],
      "name": "reservaPagada",
      "outputs": [
        {
          "internalType": "bool",
          "name": "",
          "type": "bool"
        }
      ],
      "stateMutability": "view",
      "type": "function"
    },
    {
      "inputs": [],
      "name": "roomCount",
      "outputs": [
        {
          "internalType": "uint256",
          "name": "",
          "type": "uint256"
        }
      ],
      "stateMutability": "view",
      "type": "function"
    },
    {
      "inputs": [
        {
          "internalType": "uint256",
          "name": "",
          "type": "uint256"
        }
      ],
      "name": "rooms",
      "outputs": [
        {
          "internalType": "uint256",
          "name": "id",
          "type": "uint256"
        },
        {
          "internalType": "string",
          "name": "name",
          "type": "string"
        },
        {
          "internalType": "uint256",
          "name": "pricePerNight",
          "type": "uint256"
        },
        {
          "internalType": "bool",
          "name": "isBooked",
          "type": "bool"
        },
        {
          "internalType": "address",
          "name": "currentGuest",
          "type": "address"
        },
        {
          "internalType": "string",
          "name": "imageUrl",
          "type": "string"
        }
      ],
      "stateMutability": "view",
      "type": "function"
    },
    {
      "inputs": [
        {
          "internalType": "address",
          "name": "usdcAddress",
          "type": "address"
        }
      ],
      "name": "setUSDC",
      "outputs": [],
      "stateMutability": "nonpayable",
      "type": "function"
    },
    {
      "inputs": [],
      "name": "usdc",
      "outputs": [
        {
          "internalType": "contract IERC20",
          "name": "",
          "type": "address"
        }
      ],
      "stateMutability": "view",
      "type": "function"
    }
  ],
  "bytecode": "0x6080604052348015600e575f80fd5b50604051610e8e380380610e8e833981016040819052602b91605c565b5f8054336001600160a01b031991821617909155600280549091166001600160a01b03929092169190911790556087565b5f60208284031215606b575f80fd5b81516001600160a01b03811681146080575f80fd5b9392505050565b610dfa806100945f395ff3fe608060405260043610610080575f3560e01c80631bae0ac8146100845780633e413bee146100be5780635a8efab8146100f55780635f49d3d81461010a5780638da5cb5b1461011d578063b3e089a21461013b578063b81fa3c61461015a578063baf0bd2a14610198578063df93a4e3146101b7578063e0845f4b146101da575b5f80fd5b34801561008f575f80fd5b506100a361009e36600461099b565b6101f9565b6040516100b5969594939291906109e0565b60405180910390f35b3480156100c9575f80fd5b506002546100dd906001600160a01b031681565b6040516001600160a01b0390911681526020016100b5565b61010861010336600461099b565b61034a565b005b61010861011836600461099b565b610474565b348015610128575f80fd5b505f546100dd906001600160a01b031681565b348015610146575f80fd5b50610108610155366004610a35565b6105f7565b348015610165575f80fd5b5061018861017436600461099b565b60016020525f908152604090205460ff1681565b60405190151581526020016100b5565b3480156101a3575f80fd5b506101086101b2366004610aff565b61065f565b3480156101c2575f80fd5b506101cc60045481565b6040519081526020016100b5565b3480156101e5575f80fd5b506101086101f4366004610b67565b6107dc565b60036020525f90815260409020805460018201805491929161021a90610b87565b80601f016020809104026020016040519081016040528092919081815260200182805461024690610b87565b80156102915780601f1061026857610100808354040283529160200191610291565b820191905f5260205f20905b81548152906001019060200180831161027457829003601f168201915b50505050600283015460038401546004850180549495929460ff831694506101009092046001600160a01b031692916102c990610b87565b80601f01602080910402602001604051908101604052809291908181526020018280546102f590610b87565b80156103405780601f1061031757610100808354040283529160200191610340565b820191905f5260205f20905b81548152906001019060200180831161032357829003601f168201915b5050505050905086565b5f8181526001602052604090205460ff16156103815760405162461bcd60e51b815260040161037890610bbf565b60405180910390fd5b5f34116103a05760405162461bcd60e51b815260040161037890610bea565b5f818152600160208190526040808320805460ff1916909217909155815490516001600160a01b03909116913480156108fc02929091818181858888f193505050501580156103f1573d5f803e3d5ffd5b507f2186b9cedb7013e75de326c5a3ec8be8bf9cdeb32ac6d82bbeb5944beb57b7908133348433344360405160200161042d9493929190610c12565b60408051601f1981840301815282825280516020918201209583526001600160a01b039094169382019390935291820152606081019190915260800160405180910390a150565b5f81815260036020526040812080549091036104cc5760405162461bcd60e51b81526020600482015260176024820152764c612068616269746163696f6e206e6f2065786973746560481b6044820152606401610378565b600381015460ff16156105155760405162461bcd60e51b8152602060048201526011602482015270596120657374612072657365727661646160781b6044820152606401610378565b806002015434101561055f5760405162461bcd60e51b815260206004820152601360248201527244696e65726f20696e737566696369656e746560681b6044820152606401610378565b60038101805433610100026001600160a81b03199091161760011790555f80546040516001600160a01b0391909116913480156108fc02929091818181858888f193505050501580156105b4573d5f803e3d5ffd5b5060408051838152336020820152348183015290517f2b4708ffb84be173b818d9b07f07c6679aa34f2f03fa0763b98034f6fc694fe59181900360600190a15050565b5f546001600160a01b0316331461063d5760405162461bcd60e51b815260206004820152600a60248201526929b7b6379037bbb732b960b11b6044820152606401610378565b600280546001600160a01b0319166001600160a01b0392909216919091179055565b5f546001600160a01b031633146106c95760405162461bcd60e51b815260206004820152602860248201527f536f6c6f20656c206475656e6f20707565646520616772656761722068616269604482015267746163696f6e657360c01b6064820152608401610378565b60048054905f6106d883610c3a565b90915550506040805160c08101825260045480825260208083018781528385018790525f606085018190526080850181905260a08501879052928352600390915292902081518155915190919060018201906107349082610caa565b5060408201516002820155606082015160038201805460808501516001600160a01b031661010002610100600160a81b0319931515939093166001600160a81b03199091161791909117905560a082015160048201906107949082610caa565b509050507f30e78ff2f427197d904e3727577666fd75721ef79d165d2234db97d1d73a60cc6004548484846040516107cf9493929190610d6a565b60405180910390a1505050565b5f8281526001602052604090205460ff161561080a5760405162461bcd60e51b815260040161037890610bbf565b5f81116108295760405162461bcd60e51b815260040161037890610bea565b5f828152600160208190526040808320805460ff1916909217909155600254825491516323b872dd60e01b81523360048201526001600160a01b039283166024820152604481018590529116906323b872dd906064016020604051808303815f875af115801561089b573d5f803e3d5ffd5b505050506040513d601f19601f820116820180604052508101906108bf9190610da5565b9050806109035760405162461bcd60e51b81526020600482015260126024820152715472616e7366657246726f6d2066616c6c6f60701b6044820152606401610378565b7f7f7632315f007038fb2bd41a648d144092e9e2919b46976880552b7735941a5683338460025f9054906101000a90046001600160a01b0316873388436040516020016109539493929190610c12565b60408051808303601f1901815282825280516020918201209683526001600160a01b03958616908301528101929092529091166060820152608081019190915260a0016107cf565b5f602082840312156109ab575f80fd5b5035919050565b5f81518084528060208401602086015e5f602082860101526020601f19601f83011685010191505092915050565b86815260c060208201525f6109f860c08301886109b2565b6040830187905285151560608401526001600160a01b038516608084015282810360a0840152610a2881856109b2565b9998505050505050505050565b5f60208284031215610a45575f80fd5b81356001600160a01b0381168114610a5b575f80fd5b9392505050565b634e487b7160e01b5f52604160045260245ffd5b5f82601f830112610a85575f80fd5b813567ffffffffffffffff80821115610aa057610aa0610a62565b604051601f8301601f19908116603f01168101908282118183101715610ac857610ac8610a62565b81604052838152866020858801011115610ae0575f80fd5b836020870160208301375f602085830101528094505050505092915050565b5f805f60608486031215610b11575f80fd5b833567ffffffffffffffff80821115610b28575f80fd5b610b3487838801610a76565b9450602086013593506040860135915080821115610b50575f80fd5b50610b5d86828701610a76565b9150509250925092565b5f8060408385031215610b78575f80fd5b50508035926020909101359150565b600181811c90821680610b9b57607f821691505b602082108103610bb957634e487b7160e01b5f52602260045260245ffd5b50919050565b602080825260119082015270526573657276612079612070616761646160781b604082015260600190565b6020808252600e908201526d4d6f6e746f20696e76616c69646f60901b604082015260600190565b93845260609290921b6001600160601b03191660208401526034830152605482015260740190565b5f60018201610c5757634e487b7160e01b5f52601160045260245ffd5b5060010190565b601f821115610ca557805f5260205f20601f840160051c81016020851015610c835750805b601f840160051c820191505b81811015610ca2575f8155600101610c8f565b50505b505050565b815167ffffffffffffffff811115610cc457610cc4610a62565b610cd881610cd28454610b87565b84610c5e565b602080601f831160018114610d0b575f8415610cf45750858301515b5f19600386901b1c1916600185901b178555610d62565b5f85815260208120601f198616915b82811015610d3957888601518255948401946001909101908401610d1a565b5085821015610d5657878501515f19600388901b60f8161c191681555b505060018460011b0185555b505050505050565b848152608060208201525f610d8260808301866109b2565b8460408401528281036060840152610d9a81856109b2565b979650505050505050565b5f60208284031215610db5575f80fd5b81518015158114610a5b575f80fdfea264697066735822122025a1b6b36ee585e925718b9cb8bd9bb7f93468953473f43987ad5e8dddc2fec664736f6c63430008190033",
  "linkReferences": {},
  "deployedLinkReferences": {}
}