{
  "_format": "hh-sol-artifact-1",
  "contractName": "HotelV2",
  "sourceName": "contracts/HotelV2.sol",
  "abi": [
    {
      "inputs": [
        {
          "internalType": "address",
          "name": "initialOwner",
          "type": "address"
        },
        {
          "internalType": "address",
          "name": "usdcAddress",
          "type": "address"
        },
        {
          "internalType": "address",
          "name": "bookingNftAddress",
          "type": "address"
        },
        {
          "internalType": "address",
          "name": "rewardsAddress",
          "type": "address"
        },
        {
          "internalType": "address",
          "name": "treasuryAddress",
          "type": "address"
        },
        {
          "internalType": "address",
          "name": "membershipSbtAddress",
          "type": "address"
        }
      ],
      "stateMutability": "nonpayable",
      "type": "constructor"
    },
    {
      "inputs": [],
      "name": "AlreadyPaid",
      "type": "error"
    },
    {
      "inputs": [],
      "name": "InvalidAmount",
      "type": "error"
    },
    {
      "inputs": [
        {
          "internalType": "address",
          "name": "owner",
          "type": "address"
        }
      ],
      "name": "OwnableInvalidOwner",
      "type": "error"
    },
    {
      "inputs": [
        {
          "internalType": "address",
          "name": "account",
          "type": "address"
        }
      ],
      "name": "OwnableUnauthorizedAccount",
      "type": "error"
    },
    {
      "anonymous": false,
      "inputs": [
        {
          "indexed": false,
          "internalType": "uint256",
          "name": "reservaId",
          "type": "uint256"
        },
        {
          "indexed": false,
          "internalType": "uint256",
          "name": "tokenId",
          "type": "uint256"
        },
        {
          "indexed": false,
          "internalType": "address",
          "name": "to",
          "type": "address"
        }
      ],
      "name": "BookingMinted",
      "type": "event"
    },
    {
      "anonymous": false,
      "inputs": [
        {
          "indexed": true,
          "internalType": "address",
          "name": "previousOwner",
          "type": "address"
        },
        {
          "indexed": true,
          "internalType": "address",
          "name": "newOwner",
          "type": "address"
        }
      ],
      "name": "OwnershipTransferred",
      "type": "event"
    },
    {
      "anonymous": false,
      "inputs": [
        {
          "indexed": false,
          "internalType": "uint256",
          "name": "reservaId",
          "type": "uint256"
        },
        {
          "indexed": false,
          "internalType": "address",
          "name": "payer",
          "type": "address"
        },
        {
          "indexed": false,
          "internalType": "uint256",
          "name": "amountWei",
          "type": "uint256"
        },
        {
          "indexed": false,
          "internalType": "bytes32",
          "name": "txRef",
          "type": "bytes32"
        }
      ],
      "name": "ReservaPagada",
      "type": "event"
    },
    {
      "anonymous": false,
      "inputs": [
        {
          "indexed": false,
          "internalType": "uint256",
          "name": "reservaId",
          "type": "uint256"
        },
        {
          "indexed": false,
          "internalType": "address",
          "name": "payer",
          "type": "address"
        },
        {
          "indexed": false,
          "internalType": "uint256",
          "name": "amount",
          "type": "uint256"
        },
        {
          "indexed": false,
          "internalType": "address",
          "name": "token",
          "type": "address"
        },
        {
          "indexed": false,
          "internalType": "bytes32",
          "name": "txRef",
          "type": "bytes32"
        }
      ],
      "name": "ReservaPagadaUSDC",
      "type": "event"
    },
    {
      "anonymous": false,
      "inputs": [
        {
          "indexed": false,
          "internalType": "uint256",
          "name": "reservaId",
          "type": "uint256"
        },
        {
          "indexed": false,
          "internalType": "address",
          "name": "to",
          "type": "address"
        },
        {
          "indexed": false,
          "internalType": "uint256",
          "name": "amount",
          "type": "uint256"
        }
      ],
      "name": "RewardsMinted",
      "type": "event"
    },
    {
      "inputs": [],
      "name": "baseRewardBps",
      "outputs": [
        {
          "internalType": "uint16",
          "name": "",
          "type": "uint16"
        }
      ],
      "stateMutability": "view",
      "type": "function"
    },
    {
      "inputs": [],
      "name": "bookingNFT",
      "outputs": [
        {
          "internalType": "contract BookingNFT",
          "name": "",
          "type": "address"
        }
      ],
      "stateMutability": "view",
      "type": "function"
    },
    {
      "inputs": [],
      "name": "memberBonusBps",
      "outputs": [
        {
          "internalType": "uint16",
          "name": "",
          "type": "uint16"
        }
      ],
      "stateMutability": "view",
      "type": "function"
    },
    {
      "inputs": [],
      "name": "membershipSBT",
      "outputs": [
        {
          "internalType": "address",
          "name": "",
          "type": "address"
        }
      ],
      "stateMutability": "view",
      "type": "function"
    },
    {
      "inputs": [],
      "name": "owner",
      "outputs": [
        {
          "internalType": "address",
          "name": "",
          "type": "address"
        }
      ],
      "stateMutability": "view",
      "type": "function"
    },
    {
      "inputs": [
        {
          "internalType": "uint256",
          "name": "reservaId",
          "type": "uint256"
        }
      ],
      "name": "pagarReserva",
      "outputs": [],
      "stateMutability": "payable",
      "type": "function"
    },
    {
      "inputs": [
        {
          "internalType": "uint256",
          "name": "reservaId",
          "type": "uint256"
        },
        {
          "internalType": "uint256",
          "name": "amount",
          "type": "uint256"
        }
      ],
      "name": "pagarReservaUSDC",
      "outputs": [],
      "stateMutability": "nonpayable",
      "type": "function"
    },
    {
      "inputs": [],
      "name": "renounceOwnership",
      "outputs": [],
      "stateMutability": "nonpayable",
      "type": "function"
    },
    {
      "inputs": [
        {
          "internalType": "uint256",
          "name": "",
          "type": "uint256"
        }
      ],
      "name": "reservaPagada",
      "outputs": [
        {
          "internalType": "bool",
          "name": "",
          "type": "bool"
        }
      ],
      "stateMutability": "view",
      "type": "function"
    },
    {
      "inputs": [],
      "name": "rewards",
      "outputs": [
        {
          "internalType": "contract RewardsToken",
          "name": "",
          "type": "address"
        }
      ],
      "stateMutability": "view",
      "type": "function"
    },
    {
      "inputs": [
        {
          "internalType": "address",
          "name": "sbt",
          "type": "address"
        }
      ],
      "name": "setMembershipSBT",
      "outputs": [],
      "stateMutability": "nonpayable",
      "type": "function"
    },
    {
      "inputs": [
        {
          "internalType": "uint16",
          "name": "_baseRewardBps",
          "type": "uint16"
        },
        {
          "internalType": "uint16",
          "name": "_memberBonusBps",
          "type": "uint16"
        }
      ],
      "name": "setParams",
      "outputs": [],
      "stateMutability": "nonpayable",
      "type": "function"
    },
    {
      "inputs": [
        {
          "internalType": "address",
          "name": "newOwner",
          "type": "address"
        }
      ],
      "name": "transferOwnership",
      "outputs": [],
      "stateMutability": "nonpayable",
      "type": "function"
    },
    {
      "inputs": [],
      "name": "treasury",
      "outputs": [
        {
          "internalType": "contract Treasury",
          "name": "",
          "type": "address"
        }
      ],
      "stateMutability": "view",
      "type": "function"
    },
    {
      "inputs": [],
      "name": "usdc",
      "outputs": [
        {
          "internalType": "contract IERC20",
          "name": "",
          "type": "address"
        }
      ],
      "stateMutability": "view",
      "type": "function"
    }
  ],
  "bytecode": "0x60806040526006805463ffffffff60a01b1916620c801960a31b179055348015610027575f80fd5b50604051610e8a380380610e8a8339810160408190526100469161014b565b856001600160a01b03811661007457604051631e4fbdf760e01b81525f600482015260240160405180910390fd5b61007d816100e1565b50600180546001600160a01b03199081166001600160a01b03978816179091556002805482169587169590951790945560038054851693861693909317909255600480548416918516919091179055600680549092169216919091179055506101bb565b5f80546001600160a01b038381166001600160a01b0319831681178455604051919092169283917f8be0079c531659141344cd1fd0a4f28419497f9722a3daafe3b4186f6b6457e09190a35050565b80516001600160a01b0381168114610146575f80fd5b919050565b5f805f805f8060c08789031215610160575f80fd5b61016987610130565b955061017760208801610130565b945061018560408801610130565b935061019360608801610130565b92506101a160808801610130565b91506101af60a08801610130565b90509295509295509295565b610cc2806101c85f395ff3fe6080604052600436106100b7575f3560e01c806320672ac0146100bb57806335f41d13146100dc5780633e413bee146100fb57806359627bf6146101305780635a8efab81461014f5780635af1a1431461016257806361d027b314610196578063715018a6146101b55780638da5cb5b146101c9578063969233ab146101e55780639ec5a89414610204578063ab3524c214610223578063b81fa3c614610244578063e0845f4b14610282578063f2fde38b146102a1575b5f80fd5b3480156100c6575f80fd5b506100da6100d5366004610a81565b6102c0565b005b3480156100e7575f80fd5b506100da6100f6366004610ac4565b6102ea565b348015610106575f80fd5b5060015461011a906001600160a01b031681565b6040516101279190610af5565b60405180910390f35b34801561013b575f80fd5b5060025461011a906001600160a01b031681565b6100da61015d366004610b09565b61032a565b34801561016d575f80fd5b5060065461018390600160a01b900461ffff1681565b60405161ffff9091168152602001610127565b3480156101a1575f80fd5b5060045461011a906001600160a01b031681565b3480156101c0575f80fd5b506100da610611565b3480156101d4575f80fd5b505f546001600160a01b031661011a565b3480156101f0575f80fd5b5060065461011a906001600160a01b031681565b34801561020f575f80fd5b5060035461011a906001600160a01b031681565b34801561022e575f80fd5b5060065461018390600160b01b900461ffff1681565b34801561024f575f80fd5b5061027261025e366004610b09565b60056020525f908152604090205460ff1681565b6040519015158152602001610127565b34801561028d575f80fd5b506100da61029c366004610b20565b610624565b3480156102ac575f80fd5b506100da6102bb366004610a81565b6109c9565b6102c8610a06565b600680546001600160a01b0319166001600160a01b0392909216919091179055565b6102f2610a06565b6006805463ffffffff60a01b1916600160a01b61ffff9485160261ffff60b01b191617600160b01b9290931691909102919091179055565b5f8181526005602052604090205460ff161561035957604051630d70a0e360e41b815260040160405180910390fd5b345f036103795760405163162908e360e11b815260040160405180910390fd5b5f81815260056020526040808220805460ff1916600117905560045490516001600160a01b039091169034908381818185875af1925050503d805f81146103db576040519150601f19603f3d011682016040523d82523d5f602084013e6103e0565b606091505b50509050806104315760405162461bcd60e51b81526020600482015260186024820152771d1c99585cdd5c9e481d1c985b9cd9995c8819985a5b195960421b60448201526064015b60405180910390fd5b7f2186b9cedb7013e75de326c5a3ec8be8bf9cdeb32ac6d82bbeb5944beb57b7908233348533344360405160200161046c9493929190610b40565b60408051601f1981840301815282825280516020918201209583526001600160a01b039094169382019390935291820152606081019190915260800160405180910390a160025460405163ebb09b1160e01b81525f916001600160a01b03169063ebb09b11906104ec903390879086908190819081903490600401610b68565b6020604051808303815f875af1158015610508573d5f803e3d5ffd5b505050506040513d601f19601f8201168201806040525081019061052c9190610bb7565b90507f54ce3818363628cb8aea703f3169e47d26cb5aab5a4d71805e3a75eea98ca9d483823360405161056193929190610bce565b60405180910390a16003546040516340c10f1960e01b8152670de0b6b3a7640000916001600160a01b0316906340c10f19906105a39033908590600401610bed565b5f604051808303815f87803b1580156105ba575f80fd5b505af11580156105cc573d5f803e3d5ffd5b505050507fc374775dffb9bafb62c0f8f4681972e00cc80d9f1dd62019ae1325feaca16c3d84338360405161060393929190610c06565b60405180910390a150505050565b610619610a06565b6106225f610a32565b565b5f8281526005602052604090205460ff161561065357604051630d70a0e360e41b815260040160405180910390fd5b805f036106735760405163162908e360e11b815260040160405180910390fd5b5f82815260056020526040808220805460ff19166001908117909155546004805492516323b872dd60e01b815233918101919091526001600160a01b039283166024820152604481018590529116906323b872dd906064016020604051808303815f875af11580156106e7573d5f803e3d5ffd5b505050506040513d601f19601f8201168201806040525081019061070b9190610c25565b9050806107505760405162461bcd60e51b81526020600482015260136024820152721d1c985b9cd9995c919c9bdb4819985a5b1959606a1b6044820152606401610428565b60048054600154604051637cade60360e01b81526001600160a01b0392831693637cade60393610784931691879101610bed565b5f604051808303815f87803b15801561079b575f80fd5b505af11580156107ad573d5f803e3d5ffd5b505050507f7f7632315f007038fb2bd41a648d144092e9e2919b46976880552b7735941a5683338460015f9054906101000a90046001600160a01b0316873388436040516020016108019493929190610b40565b60408051808303601f1901815282825280516020918201209683526001600160a01b03958616908301528101929092529091166060820152608081019190915260a00160405180910390a160025460015460405163ebb09b1160e01b81525f926001600160a01b039081169263ebb09b119261088e9233928a928892839283929116908c90600401610b68565b6020604051808303815f875af11580156108aa573d5f803e3d5ffd5b505050506040513d601f19601f820116820180604052508101906108ce9190610bb7565b90507f54ce3818363628cb8aea703f3169e47d26cb5aab5a4d71805e3a75eea98ca9d484823360405161090393929190610bce565b60405180910390a15f603261091d8564e8d4a51000610c44565b6109279190610c6d565b6003546040516340c10f1960e01b81529192506001600160a01b0316906340c10f199061095a9033908590600401610bed565b5f604051808303815f87803b158015610971575f80fd5b505af1158015610983573d5f803e3d5ffd5b505050507fc374775dffb9bafb62c0f8f4681972e00cc80d9f1dd62019ae1325feaca16c3d8533836040516109ba93929190610c06565b60405180910390a15050505050565b6109d1610a06565b6001600160a01b0381166109fa575f604051631e4fbdf760e01b81526004016104289190610af5565b610a0381610a32565b50565b5f546001600160a01b03163314610622573360405163118cdaa760e01b81526004016104289190610af5565b5f80546001600160a01b038381166001600160a01b0319831681178455604051919092169283917f8be0079c531659141344cd1fd0a4f28419497f9722a3daafe3b4186f6b6457e09190a35050565b5f60208284031215610a91575f80fd5b81356001600160a01b0381168114610aa7575f80fd5b9392505050565b803561ffff81168114610abf575f80fd5b919050565b5f8060408385031215610ad5575f80fd5b610ade83610aae565b9150610aec60208401610aae565b90509250929050565b6001600160a01b0391909116815260200190565b5f60208284031215610b19575f80fd5b5035919050565b5f8060408385031215610b31575f80fd5b50508035926020909101359150565b93845260609290921b6001600160601b03191660208401526034830152605482015260740190565b6001600160a01b039788168152602081019690965267ffffffffffffffff948516604087015292909316606085015263ffffffff166080840152921660a082015260c081019190915260e00190565b5f60208284031215610bc7575f80fd5b5051919050565b92835260208301919091526001600160a01b0316604082015260600190565b6001600160a01b03929092168252602082015260400190565b9283526001600160a01b03919091166020830152604082015260600190565b5f60208284031215610c35575f80fd5b81518015158114610aa7575f80fd5b8082028115828204841417610c6757634e487b7160e01b5f52601160045260245ffd5b92915050565b5f82610c8757634e487b7160e01b5f52601260045260245ffd5b50049056fea2646970667358221220594e3eba04c5c2cc7b73ae95b376a922ad484055ba5ca7d1a199aa4cbb08aa8564736f6c63430008190033",
  "linkReferences": {},
  "deployedLinkReferences": {}
}