{
  "_format": "hh-sol-artifact-1",
  "contractName": "MembershipSBT",
  "sourceName": "contracts/MembershipSBT.sol",
  "abi": [
    {
      "inputs": [],
      "stateMutability": "nonpayable",
      "type": "constructor"
    },
    {
      "inputs": [
        {
          "internalType": "address",
          "name": "sender",
          "type": "address"
        },
        {
          "internalType": "uint256",
          "name": "tokenId",
          "type": "uint256"
        },
        {
          "internalType": "address",
          "name": "owner",
          "type": "address"
        }
      ],
      "name": "ERC721IncorrectOwner",
      "type": "error"
    },
    {
      "inputs": [
        {
          "internalType": "address",
          "name": "operator",
          "type": "address"
        },
        {
          "internalType": "uint256",
          "name": "tokenId",
          "type": "uint256"
        }
      ],
      "name": "ERC721InsufficientApproval",
      "type": "error"
    },
    {
      "inputs": [
        {
          "internalType": "address",
          "name": "approver",
          "type": "address"
        }
      ],
      "name": "ERC721InvalidApprover",
      "type": "error"
    },
    {
      "inputs": [
        {
          "internalType": "address",
          "name": "operator",
          "type": "address"
        }
      ],
      "name": "ERC721InvalidOperator",
      "type": "error"
    },
    {
      "inputs": [
        {
          "internalType": "address",
          "name": "owner",
          "type": "address"
        }
      ],
      "name": "ERC721InvalidOwner",
      "type": "error"
    },
    {
      "inputs": [
        {
          "internalType": "address",
          "name": "receiver",
          "type": "address"
        }
      ],
      "name": "ERC721InvalidReceiver",
      "type": "error"
    },
    {
      "inputs": [
        {
          "internalType": "address",
          "name": "sender",
          "type": "address"
        }
      ],
      "name": "ERC721InvalidSender",
      "type": "error"
    },
    {
      "inputs": [
        {
          "internalType": "uint256",
          "name": "tokenId",
          "type": "uint256"
        }
      ],
      "name": "ERC721NonexistentToken",
      "type": "error"
    },
    {
      "inputs": [],
      "name": "NonTransferable",
      "type": "error"
    },
    {
      "inputs": [],
      "name": "NotMinter",
      "type": "error"
    },
    {
      "inputs": [],
      "name": "NotOwner",
      "type": "error"
    },
    {
      "anonymous": false,
      "inputs": [
        {
          "indexed": true,
          "internalType": "address",
          "name": "owner",
          "type": "address"
        },
        {
          "indexed": true,
          "internalType": "address",
          "name": "approved",
          "type": "address"
        },
        {
          "indexed": true,
          "internalType": "uint256",
          "name": "tokenId",
          "type": "uint256"
        }
      ],
      "name": "Approval",
      "type": "event"
    },
    {
      "anonymous": false,
      "inputs": [
        {
          "indexed": true,
          "internalType": "address",
          "name": "owner",
          "type": "address"
        },
        {
          "indexed": true,
          "internalType": "address",
          "name": "operator",
          "type": "address"
        },
        {
          "indexed": false,
          "internalType": "bool",
          "name": "approved",
          "type": "bool"
        }
      ],
      "name": "ApprovalForAll",
      "type": "event"
    },
    {
      "anonymous": false,
      "inputs": [
        {
          "indexed": true,
          "internalType": "address",
          "name": "from",
          "type": "address"
        },
        {
          "indexed": true,
          "internalType": "address",
          "name": "to",
          "type": "address"
        },
        {
          "indexed": true,
          "internalType": "uint256",
          "name": "tokenId",
          "type": "uint256"
        }
      ],
      "name": "Transfer",
      "type": "event"
    },
    {
      "inputs": [
        {
          "internalType": "address",
          "name": "to",
          "type": "address"
        },
        {
          "internalType": "uint256",
          "name": "tokenId",
          "type": "uint256"
        }
      ],
      "name": "approve",
      "outputs": [],
      "stateMutability": "nonpayable",
      "type": "function"
    },
    {
      "inputs": [
        {
          "internalType": "address",
          "name": "owner",
          "type": "address"
        }
      ],
      "name": "balanceOf",
      "outputs": [
        {
          "internalType": "uint256",
          "name": "",
          "type": "uint256"
        }
      ],
      "stateMutability": "view",
      "type": "function"
    },
    {
      "inputs": [
        {
          "internalType": "uint256",
          "name": "tokenId",
          "type": "uint256"
        }
      ],
      "name": "getApproved",
      "outputs": [
        {
          "internalType": "address",
          "name": "",
          "type": "address"
        }
      ],
      "stateMutability": "view",
      "type": "function"
    },
    {
      "inputs": [
        {
          "internalType": "address",
          "name": "a",
          "type": "address"
        }
      ],
      "name": "hasMembership",
      "outputs": [
        {
          "internalType": "bool",
          "name": "",
          "type": "bool"
        }
      ],
      "stateMutability": "view",
      "type": "function"
    },
    {
      "inputs": [
        {
          "internalType": "address",
          "name": "owner",
          "type": "address"
        },
        {
          "internalType": "address",
          "name": "operator",
          "type": "address"
        }
      ],
      "name": "isApprovedForAll",
      "outputs": [
        {
          "internalType": "bool",
          "name": "",
          "type": "bool"
        }
      ],
      "stateMutability": "view",
      "type": "function"
    },
    {
      "inputs": [
        {
          "internalType": "address",
          "name": "",
          "type": "address"
        }
      ],
      "name": "isMinter",
      "outputs": [
        {
          "internalType": "bool",
          "name": "",
          "type": "bool"
        }
      ],
      "stateMutability": "view",
      "type": "function"
    },
    {
      "inputs": [
        {
          "internalType": "address",
          "name": "to",
          "type": "address"
        }
      ],
      "name": "mint",
      "outputs": [
        {
          "internalType": "uint256",
          "name": "tokenId",
          "type": "uint256"
        }
      ],
      "stateMutability": "nonpayable",
      "type": "function"
    },
    {
      "inputs": [],
      "name": "name",
      "outputs": [
        {
          "internalType": "string",
          "name": "",
          "type": "string"
        }
      ],
      "stateMutability": "view",
      "type": "function"
    },
    {
      "inputs": [],
      "name": "nextId",
      "outputs": [
        {
          "internalType": "uint256",
          "name": "",
          "type": "uint256"
        }
      ],
      "stateMutability": "view",
      "type": "function"
    },
    {
      "inputs": [],
      "name": "owner",
      "outputs": [
        {
          "internalType": "address",
          "name": "",
          "type": "address"
        }
      ],
      "stateMutability": "view",
      "type": "function"
    },
    {
      "inputs": [
        {
          "internalType": "uint256",
          "name": "tokenId",
          "type": "uint256"
        }
      ],
      "name": "ownerOf",
      "outputs": [
        {
          "internalType": "address",
          "name": "",
          "type": "address"
        }
      ],
      "stateMutability": "view",
      "type": "function"
    },
    {
      "inputs": [
        {
          "internalType": "address",
          "name": "from",
          "type": "address"
        },
        {
          "internalType": "address",
          "name": "to",
          "type": "address"
        },
        {
          "internalType": "uint256",
          "name": "tokenId",
          "type": "uint256"
        }
      ],
      "name": "safeTransferFrom",
      "outputs": [],
      "stateMutability": "nonpayable",
      "type": "function"
    },
    {
      "inputs": [
        {
          "internalType": "address",
          "name": "from",
          "type": "address"
        },
        {
          "internalType": "address",
          "name": "to",
          "type": "address"
        },
        {
          "internalType": "uint256",
          "name": "tokenId",
          "type": "uint256"
        },
        {
          "internalType": "bytes",
          "name": "data",
          "type": "bytes"
        }
      ],
      "name": "safeTransferFrom",
      "outputs": [],
      "stateMutability": "nonpayable",
      "type": "function"
    },
    {
      "inputs": [
        {
          "internalType": "address",
          "name": "operator",
          "type": "address"
        },
        {
          "internalType": "bool",
          "name": "approved",
          "type": "bool"
        }
      ],
      "name": "setApprovalForAll",
      "outputs": [],
      "stateMutability": "nonpayable",
      "type": "function"
    },
    {
      "inputs": [
        {
          "internalType": "address",
          "name": "m",
          "type": "address"
        },
        {
          "internalType": "bool",
          "name": "allowed",
          "type": "bool"
        }
      ],
      "name": "setMinter",
      "outputs": [],
      "stateMutability": "nonpayable",
      "type": "function"
    },
    {
      "inputs": [
        {
          "internalType": "bytes4",
          "name": "interfaceId",
          "type": "bytes4"
        }
      ],
      "name": "supportsInterface",
      "outputs": [
        {
          "internalType": "bool",
          "name": "",
          "type": "bool"
        }
      ],
      "stateMutability": "view",
      "type": "function"
    },
    {
      "inputs": [],
      "name": "symbol",
      "outputs": [
        {
          "internalType": "string",
          "name": "",
          "type": "string"
        }
      ],
      "stateMutability": "view",
      "type": "function"
    },
    {
      "inputs": [
        {
          "internalType": "uint256",
          "name": "tokenId",
          "type": "uint256"
        }
      ],
      "name": "tokenURI",
      "outputs": [
        {
          "internalType": "string",
          "name": "",
          "type": "string"
        }
      ],
      "stateMutability": "view",
      "type": "function"
    },
    {
      "inputs": [
        {
          "internalType": "address",
          "name": "from",
          "type": "address"
        },
        {
          "internalType": "address",
          "name": "to",
          "type": "address"
        },
        {
          "internalType": "uint256",
          "name": "tokenId",
          "type": "uint256"
        }
      ],
      "name": "transferFrom",
      "outputs": [],
      "stateMutability": "nonpayable",
      "type": "function"
    }
  ],
  "bytecode": "0x60806040526001600755348015610014575f80fd5b506040518060400160405280601581526020017f43727970746f53746179204d656d6265727368697000000000000000000000008152506040518060400160405280600581526020016443534d454d60d81b815250815f90816100779190610151565b5060016100848282610151565b5050600680546001600160a01b031916339081179091555f908152600860205260409020805460ff1916600117905550610210565b634e487b7160e01b5f52604160045260245ffd5b600181811c908216806100e157607f821691505b6020821081036100ff57634e487b7160e01b5f52602260045260245ffd5b50919050565b601f82111561014c57805f5260205f20601f840160051c8101602085101561012a5750805b601f840160051c820191505b81811015610149575f8155600101610136565b50505b505050565b81516001600160401b0381111561016a5761016a6100b9565b61017e8161017884546100cd565b84610105565b602080601f8311600181146101b1575f841561019a5750858301515b5f19600386901b1c1916600185901b178555610208565b5f85815260208120601f198616915b828110156101df578886015182559484019460019091019084016101c0565b50858210156101fc57878501515f19600388901b60f8161c191681555b505060018460011b0185555b505050505050565b6110e48061021d5f395ff3fe608060405234801561000f575f80fd5b50600436106100fe575f3560e01c806370a082311161009a57806370a08231146101d75780638da5cb5b146101ea57806395d89b41146101fd578063a22cb46514610205578063a88db6ad14610218578063aa271e1a1461022b578063b88d4fde1461024d578063c87b56dd14610260578063cf456ae714610273578063e985e9c514610286575f80fd5b806301ffc9a71461010257806306fdde031461012a578063081812fc1461013f578063095ea7b31461015f57806323b872dd1461017457806342842e0e1461018757806361b8ce8c1461019a5780636352211e146101b15780636a627842146101c4575b5f80fd5b610115610110366004610d67565b610299565b60405190151581526020015b60405180910390f35b6101326102ea565b6040516101219190610db0565b61015261014d366004610dc2565b610379565b6040516101219190610dd9565b61017261016d366004610e03565b61038d565b005b610172610182366004610e2b565b61039c565b610172610195366004610e2b565b61042e565b6101a360075481565b604051908152602001610121565b6101526101bf366004610dc2565b61044d565b6101a36101d2366004610e64565b610457565b6101a36101e5366004610e64565b6104aa565b600654610152906001600160a01b031681565b6101326104ef565b610172610213366004610e7d565b6104fe565b610115610226366004610e64565b610509565b610115610239366004610e64565b60086020525f908152604090205460ff1681565b61017261025b366004610eca565b61051b565b61013261026e366004610dc2565b610533565b610172610281366004610e7d565b6105a4565b610115610294366004610f9f565b6105f9565b5f6001600160e01b031982166380ac58cd60e01b14806102c957506001600160e01b03198216635b5e139f60e01b145b806102e457506301ffc9a760e01b6001600160e01b03198316145b92915050565b60605f80546102f890610fd0565b80601f016020809104026020016040519081016040528092919081815260200182805461032490610fd0565b801561036f5780601f106103465761010080835404028352916020019161036f565b820191905f5260205f20905b81548152906001019060200180831161035257829003601f168201915b5050505050905090565b5f61038382610626565b506102e48261065d565b610398828233610677565b5050565b6001600160a01b0382166103ce575f604051633250574960e11b81526004016103c59190610dd9565b60405180910390fd5b5f6103da838333610684565b9050836001600160a01b0316816001600160a01b031614610428576040516364283d7b60e01b81526001600160a01b03808616600483015260248201849052821660448201526064016103c5565b50505050565b61044883838360405180602001604052805f81525061051b565b505050565b5f6102e482610626565b335f9081526008602052604081205460ff1661048657604051633e34a41b60e21b815260040160405180910390fd5b60078054905f61049583611008565b9190505590506104a582826106e3565b919050565b5f6001600160a01b0382166104d4575f6040516322718ad960e21b81526004016103c59190610dd9565b506001600160a01b03165f9081526003602052604090205490565b6060600180546102f890610fd0565b6103983383836106fc565b5f80610514836104aa565b1192915050565b61052684848461039c565b6104283385858585610791565b606061053e82610626565b505f61055460408051602081019091525f815290565b90505f8151116105725760405180602001604052805f81525061059d565b8061057c846108a7565b60405160200161058d929190611043565b6040516020818303038152906040525b9392505050565b6006546001600160a01b031633146105cf576040516330cd747160e01b815260040160405180910390fd5b6001600160a01b03919091165f908152600860205260409020805460ff1916911515919091179055565b6001600160a01b039182165f90815260056020908152604080832093909416825291909152205460ff1690565b5f8061063183610937565b90506001600160a01b0381166102e457604051637e27328960e01b8152600481018490526024016103c5565b5f908152600460205260409020546001600160a01b031690565b6104488383836001610951565b5f8061068f84610937565b90506001600160a01b038116158015906106b157506001600160a01b03851615155b156106cf57604051639cbe235760e01b815260040160405180910390fd5b6106da858585610a4c565b95945050505050565b610398828260405180602001604052805f815250610b39565b6001600160a01b0382166107255781604051630b61174360e31b81526004016103c59190610dd9565b6001600160a01b038381165f81815260056020908152604080832094871680845294825291829020805460ff191686151590811790915591519182527f17307eab39ab6107e8899845ad3d59bd9653f200f220920489ca2b5937696c31910160405180910390a3505050565b6001600160a01b0383163b156108a057604051630a85bd0160e11b81526001600160a01b0384169063150b7a02906107d3908890889087908790600401611057565b6020604051808303815f875af192505050801561080d575060408051601f3d908101601f1916820190925261080a91810190611093565b60015b61086b573d80801561083a576040519150601f19603f3d011682016040523d82523d5f602084013e61083f565b606091505b5080515f036108635783604051633250574960e11b81526004016103c59190610dd9565b805160208201fd5b6001600160e01b03198116630a85bd0160e11b1461089e5783604051633250574960e11b81526004016103c59190610dd9565b505b5050505050565b60605f6108b383610b50565b60010190505f8167ffffffffffffffff8111156108d2576108d2610eb6565b6040519080825280601f01601f1916602001820160405280156108fc576020820181803683370190505b5090508181016020015b5f19016f181899199a1a9b1b9c1cb0b131b232b360811b600a86061a8153600a850494508461090657509392505050565b5f908152600260205260409020546001600160a01b031690565b808061096557506001600160a01b03821615155b15610a1d575f61097484610626565b90506001600160a01b038316158015906109a05750826001600160a01b0316816001600160a01b031614155b80156109b357506109b181846105f9565b155b156109d3578260405163a9fbf51f60e01b81526004016103c59190610dd9565b8115610a1b5783856001600160a01b0316826001600160a01b03167f8c5be1e5ebec7d5bd14f71427d1e84f3dd0314c0f7b2291e5b200ac8c7c3b92560405160405180910390a45b505b50505f90815260046020526040902080546001600160a01b0319166001600160a01b0392909216919091179055565b5f80610a5784610937565b90506001600160a01b03831615610a7357610a73818486610c25565b6001600160a01b03811615610aad57610a8e5f855f80610951565b6001600160a01b0381165f90815260036020526040902080545f190190555b6001600160a01b03851615610adb576001600160a01b0385165f908152600360205260409020805460010190555b5f8481526002602052604080822080546001600160a01b0319166001600160a01b0389811691821790925591518793918516917fddf252ad1be2c89b69c2b068fc378daa952ba7f163c4a11628f55a4df523b3ef91a4949350505050565b610b438383610c89565b610448335f858585610791565b5f8072184f03e93ff9f4daa797ed6e38ed64bf6a1f0160401b8310610b8e5772184f03e93ff9f4daa797ed6e38ed64bf6a1f0160401b830492506040015b6904ee2d6d415b85acef8160201b8310610bb8576904ee2d6d415b85acef8160201b830492506020015b662386f26fc100008310610bd657662386f26fc10000830492506010015b6305f5e1008310610bee576305f5e100830492506008015b6127108310610c0257612710830492506004015b60648310610c14576064830492506002015b600a83106102e45760010192915050565b610c30838383610cea565b610448576001600160a01b038316610c5e57604051637e27328960e01b8152600481018290526024016103c5565b60405163177e802f60e01b81526001600160a01b0383166004820152602481018290526044016103c5565b6001600160a01b038216610cb2575f604051633250574960e11b81526004016103c59190610dd9565b5f610cbe83835f610684565b90506001600160a01b03811615610448575f6040516339e3563760e11b81526004016103c59190610dd9565b5f6001600160a01b03831615801590610d475750826001600160a01b0316846001600160a01b03161480610d235750610d2384846105f9565b80610d475750826001600160a01b0316610d3c8361065d565b6001600160a01b0316145b949350505050565b6001600160e01b031981168114610d64575f80fd5b50565b5f60208284031215610d77575f80fd5b813561059d81610d4f565b5f81518084528060208401602086015e5f602082860101526020601f19601f83011685010191505092915050565b602081525f61059d6020830184610d82565b5f60208284031215610dd2575f80fd5b5035919050565b6001600160a01b0391909116815260200190565b80356001600160a01b03811681146104a5575f80fd5b5f8060408385031215610e14575f80fd5b610e1d83610ded565b946020939093013593505050565b5f805f60608486031215610e3d575f80fd5b610e4684610ded565b9250610e5460208501610ded565b9150604084013590509250925092565b5f60208284031215610e74575f80fd5b61059d82610ded565b5f8060408385031215610e8e575f80fd5b610e9783610ded565b915060208301358015158114610eab575f80fd5b809150509250929050565b634e487b7160e01b5f52604160045260245ffd5b5f805f8060808587031215610edd575f80fd5b610ee685610ded565b9350610ef460208601610ded565b925060408501359150606085013567ffffffffffffffff80821115610f17575f80fd5b818701915087601f830112610f2a575f80fd5b813581811115610f3c57610f3c610eb6565b604051601f8201601f19908116603f01168101908382118183101715610f6457610f64610eb6565b816040528281528a6020848701011115610f7c575f80fd5b826020860160208301375f60208483010152809550505050505092959194509250565b5f8060408385031215610fb0575f80fd5b610fb983610ded565b9150610fc760208401610ded565b90509250929050565b600181811c90821680610fe457607f821691505b60208210810361100257634e487b7160e01b5f52602260045260245ffd5b50919050565b5f6001820161102557634e487b7160e01b5f52601160045260245ffd5b5060010190565b5f81518060208401855e5f93019283525090919050565b5f610d47611051838661102c565b8461102c565b6001600160a01b03858116825284166020820152604081018390526080606082018190525f9061108990830184610d82565b9695505050505050565b5f602082840312156110a3575f80fd5b815161059d81610d4f56fea26469706673582212206ce7bd01c1e2f234303b05585ba5d3f13de12d64870bf153d15642f4f6f6be2d64736f6c63430008190033",
  "linkReferences": {},
  "deployedLinkReferences": {}
}